:1000000000300020D500000043010000950F0000E3
:1000100000000000000000000000000000000000E0
:100020000000000000000000000000004701000088
:100030000000000000000000490100006511000000
:100040004F010000570100005F0100006701000040
:100050006F010000770100007F01000087010000B0
:100060008F010000970100009F010000A701000020
:10007000AF010000B7010000BF010000C701000090
:10008000CF010000D7010000DF010000E701000000
:10009000EF010000F7010000FF010000070200006F
:1000A0000F020000170200001F02000027020000DC
:1000B0002F020000370200003F020000470200004C
:1000C000E050000080F0FF1F0800000088F0FF1FD4
:1000D0007C09000010B572B602F0EEF80D4B07E097
:1000E000186859681C000C349A6800F019F823004D
:1000F000094A9342F4D306E018681C000834596892
:1001000000F017F82300054A9342F5D362B603F0D6
:10011000F1FFFEE7C0000000CC000000D4000000AA
:1001200010B5002302E010C810C104339342FAD383
:1001300010BD002302E0002204C004338B42FAD336
:100140007047FEE7FEE7FEE7FEE7FEE7FEE710B5D5
:10015000FFF7FCFF10BD10B5FFF7F8FF10BD10B59D
:10016000FFF7F4FF10BD10B5FFF7F0FF10BD10B59D
:10017000FFF7ECFF10BD10B5FFF7E8FF10BD10B59D
:10018000FFF7E4FF10BD10B5FFF7E0FF10BD10B59D
:10019000FFF7DCFF10BD10B5FFF7D8FF10BD10B59D
:1001A000FFF7D4FF10BD10B5FFF7D0FF10BD10B59D
:1001B00001F0A8FD10BD10B501F058FF10BD10B53D
:1001C00001F066FF10BD10B5FFF7C0FF10BD10B500
:1001D000FFF7BCFF10BD10B5FFF7B8FF10BD10B59D
:1001E000FFF7B4FF10BD10B5FFF7B0FF10BD10B59D
:1001F000FFF7ACFF10BD10B5FFF7A8FF10BD10B59D
:10020000FFF7A4FF10BD10B5FFF7A0FF10BD10B59C
:10021000FFF79CFF10BD10B5FFF798FF10BD10B59C
:10022000FFF794FF10BD10B5FFF790FF10BD10B59C
:10023000FFF78CFF10BD10B5FFF788FF10BD10B59C
:10024000FFF784FF10BD10B5FFF780FF10BDFFFF63
:10025000FFFFFFFFFFFFFFFFFFFFFFFFFFFFFFFFAE
:10026000FFFFFFFFFFFFFFFFFFFFFFFFFFFFFFFF9E
:10027000FFFFFFFFFFFFFFFFFFFFFFFFFFFFFFFF8E
:10028000FFFFFFFFFFFFFFFFFFFFFFFFFFFFFFFF7E
:10029000FFFFFFFFFFFFFFFFFFFFFFFFFFFFFFFF6E
:1002A000FFFFFFFFFFFFFFFFFFFFFFFFFFFFFFFF5E
:1002B000FFFFFFFFFFFFFFFFFFFFFFFFFFFFFFFF4E
:1002C000FFFFFFFFFFFFFFFFFFFFFFFFFFFFFFFF3E
:1002D000FFFFFFFFFFFFFFFFFFFFFFFFFFFFFFFF2E
:1002E000FFFFFFFFFFFFFFFFFFFFFFFFFFFFFFFF1E
:1002F000FFFFFFFFFFFFFFFFFFFFFFFFFFFFFFFF0E
:10030000FFFFFFFFFFFFFFFFFFFFFFFFFFFFFFFFFD
:10031000FFFFFFFFFFFFFFFFFFFFFFFFFFFFFFFFED
:10032000FFFFFFFFFFFFFFFFFFFFFFFFFFFFFFFFDD
:10033000FFFFFFFFFFFFFFFFFFFFFFFFFFFFFFFFCD
:10034000FFFFFFFFFFFFFFFFFFFFFFFFFFFFFFFFBD
:10035000FFFFFFFFFFFFFFFFFFFFFFFFFFFFFFFFAD
:10036000FFFFFFFFFFFFFFFFFFFFFFFFFFFFFFFF9D
:10037000FFFFFFFFFFFFFFFFFFFFFFFFFFFFFFFF8D
:10038000FFFFFFFFFFFFFFFFFFFFFFFFFFFFFFFF7D
:10039000FFFFFFFFFFFFFFFFFFFFFFFFFFFFFFFF6D
:1003A000FFFFFFFFFFFFFFFFFFFFFFFFFFFFFFFF5D
:1003B000FFFFFFFFFFFFFFFFFFFFFFFFFFFFFFFF4D
:1003C000FFFFFFFFFFFFFFFFFFFFFFFFFFFFFFFF3D
:1003D000FFFFFFFFFFFFFFFFFFFFFFFFFFFFFFFF2D
:1003E000FFFFFFFFFFFFFFFFFFFFFFFFFFFFFFFF1D
:1003F000FFFFFFFFFFFFFFFFFFFFFFFFFFFFFFFF0D
:10040000FFFFFFFFFFFFFFFFFFFFFFFFFEFFFFFFFD
:1004100090B589B000AFF860B9603B60FB1D1A7001
:10042000334B1B78002B01D001235CE0304BFA1DCD
:1004300012781A70FB1D1B78062B05D050DC012B9F
:1004400002D0032B26D04BE0FA68294B5A601824BF
:100450003B19180001F09CFD21007B18BA681A6056
:10046000234B5B683A687918180001F0A1FC204B17
:100470005B680121180003F03FFA1D4B5B68012106
:10048000180003F059FA1A4B1A4A9A60184B1A4A84
:10049000DA6027E0FA68164B5A6010243B191800FE
:1004A00001F03EFB21007B18BA681A60104B5B68B4
:1004B0003A687918180001F007FA0D4B5B680121C2
:1004C000180003F059FA0A4B5B680121180003F089
:1004D00073FA074B094A9A60054B094ADA6001E052
:1004E000042300E000231800BD4609B090BDC046BB
:1004F00088F0FF1F93400000D51F0000F91B00008B
:10050000451C000090B585B000AFF860B9607A6016
:10051000BB68002B02D101235B4218E0FB68012B72
:1005200005D0FB68022B02D001235B420FE00A4B8F
:100530001B78002B02D101235B4208E0064B9C682C
:10054000054B5B687A68B9681800A047002318005B
:10055000BD4605B090BDC04688F0FF1F80B582B093
:1005600000AF78607968002200238A61CB617B68E4
:1005700000221A667B680C4A1A607B680B4A5A6034
:100580007B680B4A9A607B680A4ADA607B680A4A91
:100590001A617B6800225A667B6800229A66C04610
:1005A000BD4602B080BDC0460123456789ABCDEF93
:1005B000FEDCBA9876543210F0E1D2C3F0B5474C65
:1005C000A54404AF464B474ABA181360464B8322F2
:1005D000D200BA18136080235B01444ABA18136032
:1005E00030238222D200B9180B60414B414979185F
:1005F0000B6000238121C90079180B60BB181A68B1
:1006000080239B009A4203D93B4B180001F060FE07
:100610008225ED007B191A68364BFB1819683B00E0
:10062000180003F08BFC2F4EBB191B68180003F059
:100630005BF80300314C3A1913608323DB00FA188E
:100640001368180003F050F803008022D200B91894
:100650000B6000F093FD391909688022D200BA18A6
:1006600014688323DB00FB181A68BB1918688026FE
:10067000B600BB1902937B191B6801931B4BFB1837
:100680001B680093230000F035F900F085FD03009E
:100690008124E40039190B6079190A683900BB1903
:1006A000180003F02AFC031E0ED039190B680A212A
:1006B000180003F068FD03000C4ABA1812681049CC
:1006C000104802F0ADFF03E00F4B180002F0A8FF46
:1006D000C046BD460D4B9D44F0BDC046CCFBFFFF60
:1006E000D84200001C040000E04200001404000096
:1006F000EC4200000C040000504300000404000021
:10070000284400007C430000A043000024040000B3
:1007100080B582B000AFFB1D01221A7000F080F995
:1007200003001A00FB1D1B781A40FB1D511E8A4155
:100730001A7000F093FA03001A00FB1D1B781A4090
:10074000FB1D511E8A411A7000F010FB03001A00B5
:10075000FB1D1B781A40FB1D511E8A411A70FB1DA0
:100760001B78002B09D1074B180002F059FF012319
:100770005B42180002F0A2FF00E0C046BD4602B096
:1007800080BDC046B843000080B500AF03F0ABFCAD
:1007900003F09DFC03F0A2FC01F0A8FC00F0AEFC0D
:1007A000094B180002F03CFFFFF7B2FF074B18009F
:1007B00002F036FF064B180002F032FFFFF7FEFE94
:1007C00000231800BD4680BDDC430000F843000054
:1007D0000C44000090B591B002AFF860B9607A6047
:1007E0003B6000237B633B681A1D80231B019A42F8
:1007F0000FD93E4B180001F06BFD7A687B6BD31864
:1008000019783B4A7B6BD3180A1C1A707B6B013337
:100810007B637A6B3B689A42EFD3FB6C1BBAFB6439
:100820004C23FB18BB62BB6A1978314A7B6BD31827
:100830000A1C1A707B6B0133BA6A51782C4AD15466
:100840007B6B0233BA6A9178294AD1547B6B0333AC
:10085000BA6AD178264AD1543B681C1D244AB9682B
:10086000F8681423FB180093230003F0D3FA142331
:100870007B6308E03A6D7B6BD3181422B9187A6B4E
:100880008A1812781A707B6B5A1E7A63002BF1D18A
:10089000BB6C3B631FE01423FA18B968F868FB18B7
:1008A0000093142303F0B6FA1423FB620EE0FB6AF4
:1008B0003A6DD31819781423FA18FB6AD3181A78EA
:1008C000FB6A386DC3184A40D2B21A70FB6A5A1ECE
:1008D000FA62002BEBD13B6B013B3B633B6B002B84
:1008E000D9D1C046C046BD460FB090BD40440000BF
:1008F00098F0FF1FF0B5284CA54404AFF860B9602C
:100900007A603B60254BFB181A68A0231B019A42B2
:1009100003D3234B180001F0DBFC204BFB181B68B2
:100920001421180003F02FFC03005C1C16E0621C6D
:1009300023009B001B199B0019001023FB185B1858
:100940003E687D68B968F86802930192154BFB1800
:100950001B68009333002A00FFF73CFF23005C1E56
:10096000002BE4D10D4BFB181C680BE0A3231B01EB
:10097000FB181B681B190C4AA12109015218D21936
:10098000125D1A7023005C1E002BEFD1C046C046DA
:10099000BD46064B9D44F0BDDCF5FFFF2C0A000070
:1009A00070440000280A000000F6FFFF140A00004F
:1009B00080B582B000AF0200FB1D1A70FB1D1B78D2
:1009C000602B08D9FB1D1B78662B04D8FB1D1B78F8
:1009D000573BDBB21DE0FB1D1B78402B08D9FB1DEC
:1009E0001B78462B04D8FB1D1B78373BDBB210E08D
:1009F000FB1D1B782F2B08D9FB1D1B78392B04D826
:100A0000FB1D1B78303BDBB203E0044B180001F008
:100A10005FFC1800BD4602B080BDC046604C0000BF
:100A2000F0B5B7B000AF9C23FB18884A13CA13C3B4
:100A300013CA13C303CA03C30423C022BA18136022
:100A40000023D422BA1813600023CC22BA181360F2
:100A500055E09C257B19CC243A191268D200D35852
:100A6000180002F041FE0300D026BA1913607A196B
:100A70003B191B68DB00D318043319688823FB1863
:100A80001422180003F05AFA3B001800FFF766FD25
:100A90007B193A191268D200D158BA1912683B0072
:100AA000180003F06AF974257A193B001100180048
:100AB00003F0CBF88823F9187B191422180003F0EF
:100AC0001CFA031E0DD03B191A686149614B1800CE
:100AD00002F0A6FDD422BB181B680133BA181360BC
:100AE00007E0CC23FB181A6859495B4B180002F049
:100AF00097FDCC22BB181B680133BA181360CC23B6
:100B0000FB181A68C023FB181B689A42A1DB00235C
:100B1000C822BA18136082E09C243B19C8257A19B0
:100B20001268D200D358C422BA1813603B197A193C
:100B30001268D200D358180002F0D6FD0300D0226C
:100B4000BA1813603A197B191B68DB00D3180433F9
:100B500019688823FB181422180003F0EFF93B00F2
:100B60001800FFF7FBFC20E0D023FB181B680A2BC2
:100B700000DD0A23BC243A1913603B191A68C42506
:100B80007B1919683B00180003F0F7F8D0217B1897
:100B90001A683B191B68D31A7A1813603B191B6833
:100BA0007A191268D3187A191360D023FB181B68BE
:100BB000002BD9DC74243A193B001100180003F013
:100BC00044F88823F9183B191422180003F095F90A
:100BD000031E12D0C823FB181A68C023FB181B6819
:100BE000D2181B491B4B180002F01AFDD422BB1867
:100BF0001B680133BA1813600BE0C823FB181A688E
:100C0000C023FB181B68D2181149134B180002F0BF
:100C100007FDC822BB181B680133BA181360C8232C
:100C2000FB181A68C0217B181B689A4200DA73E728
:100C30007B181B685B00D422BA181268D31A5A4278
:100C40005341DBB21800BD4637B0F0BDA84C0000E0
:100C5000044E0000784C0000904C0000F0B59BB0B2
:100C600002AF2823FB183D4A13CA13C313CA13C388
:100C700013CA13C303237B650023FB650023BB65F5
:100C80005DE028243919BA6D13005B009B189B00A6
:100C90005B58180002F028FD03003B653919BA6D56
:100CA00013005B009B189B00CB1804331B681800D3
:100CB00002F01AFD0300FB643919BA6D13005B00E2
:100CC0009B189B00CB18083319681426BB191422F3
:100CD000180003F033F925003919BA6D13005B00D1
:100CE0009B189B0058583C6D7919BA6D13005B0036
:100CF0009B189B00CB1804331A68F96C3B000093D7
:100D00000B00210003F086F8B9193B0014221800EB
:100D100003F0F3F8031E09D0BA6D1149114B180006
:100D200002F07EFCFB6D0133FB6505E0BA6D0C49FA
:100D30000D4B180002F074FCBB6D0133BB65BA6D3E
:100D40007B6D9A429DDB7A6DFB6DD31A5A425341FB
:100D5000DBB21800BD4619B0F0BDC046C84C00005B
:100D6000104E0000784C0000904C0000F0B57F4C15
:100D7000A54404AF8023DB00FA187D4B1000190056
:100D8000DC231A0003F0BCF90B237A4ABA1813606B
:100D90000023794ABA18136000239D22D200BA18A2
:100DA0001360CAE08024E40039199D25ED007B1909
:100DB0001A6813009B009B189B005B58180002F0F8
:100DC00093FC03009C22D200BA18136039197B19D6
:100DD0001A6813009B009B189B00CB1804331B68F8
:100DE000180002F081FC0300644ABA181360391934
:100DF0007B191A6813009B009B189B00CB180C33BF
:100E00001A6880239B009A4203D95D4B180001F0B9
:100E10005FFA8025ED0079199D24E4003B191A68DA
:100E200013009B009B189B00CB181033186879198E
:100E30003B191A6813009B009B189B00CB180C33BE
:100E40001A6880239B00FB180100180003F076F855
:100E50002E00791920003A18126813009B009B1885
:100E60009B005C589C22D200BA181568B9193A1830
:100E7000126813009B009B189B00CB1804331E685C
:100E80003E4ABA18126894468023DB00F9183A18D3
:100E9000126813009B009B189B00CB18083319683D
:100EA0008022D200B8189D23DB00FA1812681300C4
:100EB0009B009B189B00C3180C331B683A000292DE
:100EC000019300916346320029002000FFF712FDD4
:100ED0008022D200B9189D24E4003A191268130048
:100EE0009B009B189B00CB180C331A6880239B0037
:100EF000F9183B00180003F000F8031E0DD03B1951
:100F00001A682049204B180002F08AFB1A4ABB18C5
:100F10001B680133BA18136008E09D23DB00FB183F
:100F20001A681849194B180002F07AFB9D22D2006A
:100F3000BB181B680133BA1813609D23DB00FB1834
:100F40001A680C497B181B689A4200DA2AE77B185A
:100F50001A68094BFB181B68D31A5A425341DBB27B
:100F60001800BD460A4B9D44F0BDC046FCFAFFFF89
:100F7000EC4C0000E4040000EC040000DC04000081
:100F8000C84D0000204E0000784C0000904C00003E
:100F9000F404000004207146084202D0EFF30980F7
:100FA00001E0EFF3088081690A88054B9A4200D07E
:100FB000FEE702318161202101607047C0460000D8
:100FC000ABBE000080B582B000AF0200FB1D1A70FE
:100FD000FB1D1B781A001F231A40044B012191406E
:100FE0000A001A60C046BD4602B080BD00E100E0C4
:100FF00080B582B000AF0200FB1D1A70FB1D1B788C
:101000001A001F231340054901229A40C0235B00A8
:10101000CA50C046BD4602B080BDC04600E100E0F7
:1010200090B583B000AF02003960FB1D1A70FB1D44
:101030001B787F2B32D92F4AFB1D1B7819000F23F9
:101040000B40083B9B0806339B00D31804331B68F6
:10105000FA1D1278110003220A40D200FF219140AC
:101060000A00D2431A4011003B689B01FF221A403C
:10107000FB1D1B78180003230340DB009A401D482A
:10108000FB1D1B781C000F232340083B9B080A43D1
:1010900006339B00C31804331A6027E0164AFB1D71
:1010A0001B785BB29B08C0339B009B58FA1D1278DB
:1010B000110003220A40D200FF2191400A00D243CE
:1010C0001A4011003B689B01FF221A40FB1D1B7850
:1010D000180003230340DB009A400748FB1D1B78E0
:1010E0005BB29B080A43C0339B001A50C046BD4602
:1010F00003B090BD00ED00E000E100E080B500AF7E
:10110000154B962252005A6001235B4203211800BE
:10111000FFF786FF01235B421800FFF769FF0123F9
:101120005B421800FFF74EFF0B4B00229A600A4B00
:101130001A68094B04218A431A60074B1A68064B48
:1011400003210A431A60054B00221A60044B002257
:101150001A60C046BD4680BD10E000E098F8FF1F51
:101160009CF8FF1F80B500AF034B1B685A1C024B55
:101170001A60C046BD4680BD98F8FF1F80B500AF1D
:10118000034B1A68034B1A60C046BD4680BDC0467B
:1011900098F8FF1F9CF8FF1F80B500AF034B1A683B
:1011A000034B1B68D31A1800BD4680BD98F8FF1F7B
:1011B0009CF8FF1F80B582B000AF7860084B1B68B9
:1011C000084A134019007B689A04C0231B031A4085
:1011D000034B0A431A60C046BD4602B080BDC046FC
:1011E00000700440FFFFF3FF80B582B000AF78606D
:1011F000084A094BD358094A1A407B6819048023CE
:101200005B020B4003491343034A8B50C046BD4663
:1012100002B080BD0070044004100000FFFFFEFF1C
:1012200080B500AF064B1B68002B03D1054B18009F
:1012300001F04EF8024B1B681800BD4680BDC04649
:10124000A0F8FF1F384E000080B582B000AFFFF756
:10125000E7FF03007B607B68002B01D17B6841E0E6
:10126000224B1B78DBB2DB08DAB2FB1C07210A40F9
:101270001A70FB1C1B787A68DA4013007B601B4BEA
:101280005B78DBB21B09DAB2BB1C03210A401A707F
:10129000BB1C1B78002B23D0FB1C1B78072B14D006
:1012A0001BDC052B02DC002B03DA16E0062B04D036
:1012B00013E07B685B097B6013E07B6814211800F6
:1012C00002F061FF03007B600BE07B680C211800DB
:1012D00002F059FF03007B6003E000237B6000E025
:1012E000C0467B681800BD4602B080BD0040064085
:1012F00080B500AF074B9B79DBB21A001023134077
:1013000003D1FFF7A1FF030001E0034B1B681800A6
:10131000BD4680BD0040064080F0FF1F80B584B010
:1013200000AF78607B680E4A934204D80F23FB1805
:1013300000221A700CE07B680A4A934204D80F23FB
:10134000FB1801221A7003E00F23FB1802221A7007
:101350000F23FB181B781800BD4604B080BDC046A3
:101360009798000000127A0080B582B000AF0F4A53
:101370000F4BD3581B0C0122134002D0012B05D078
:101380000CE000F033F803007B600AE000F070F836
:1013900003007B607B685B087B6002E000237B606E
:1013A000C0467B681800BD4602B080BD0070044096
:1013B0000410000080B582B000AF786009497B68F6
:1013C0005B68094A8B507B681B781800FFF70CFF9D
:1013D0007B685B781800FFF7EDFEC046BD4602B0A3
:1013E00080BDC046007004404410000080B582B04B
:1013F00000AF1D4B5B78DBB21A000223134006D10D
:10140000194B9B79DBB21A002023134001D0002333
:1014100026E0FFF76DFF03007B607B68002B01D1A6
:101420007B681DE0104BDB78DBB25B09DAB2FB1C9A
:1014300003210A401A700C4BDB78DBB2DB09DAB20D
:10144000BB1C01210A401A70FB1C1978BB1C1A78BE
:10145000064B49008A185200D35A1A007B6853433E
:101460001800BD4602B080BD00400640CC4E0000D2
:1014700080B582B000AF184B9B79DBB21A004023D5
:10148000134001D1002323E002F0CAFD03007B607A
:101490007B68002B03D1114B180000F019FF0E4B95
:1014A0001B79DBB21A001F2313400133190078683F
:1014B00002F069FE03007B60074B5B79DBB21A0028
:1014C0001F23134018331A007B6853437B607B68EB
:1014D0001800BD4602B080BD00400640584E0000D6
:1014E00090B585B000AF040008001100FB1D221C60
:1014F0001A70BB1D021C1A707B1D0A1C1A70404B0F
:101500009B79DBB29B0803221340FB603C4B9B7929
:10151000DAB20B203B1801210A401A70384B1B7AB3
:10152000DBB25B08DAB20A243B1907210A401A70C1
:101530007A1D3B1912781B789A422ED03B181B78E3
:10154000012B19D1FB68012B06D02D4B1B78DBB288
:101550001A00022313400FD0294B5B78DBB2284AD4
:1015600001218B43DBB25370C046254B9B79DBB224
:101570001A0001231340F8D1214B1B7ADBB22F2232
:101580009343DAB27B1D1B78DB18DBB20E210B40D4
:10159000DBB21B491343DBB20B72194B5B78DBB236
:1015A00001229343DAB2BB1D1B7801210B40DBB251
:1015B00013491343DBB24B70114B1B78DBB2032290
:1015C0009343DAB20E49FB1D1B781343DBB20B7059
:1015D000FB68012B04D0FB1D1B78022213400AD0AC
:1015E000C046074B9B79DBB21A0001231A40BB1D92
:1015F0001B789A42F5D100231800BD4605B090BD76
:101600000040064080B584B000AF78607B68002B56
:1016100003D11F4B180000F05BFE0F203B18002287
:101620001A707B685B781F221340D9B23B183A18B6
:1016300012780A431A70174A3B181B781371154B1E
:101640005B79DBB21F229343DAB27B689B781F2160
:101650000B40DBB20F491343DBB24B710D4B1B79CF
:10166000DAB27B681B781343DBB20A4A40210B4392
:10167000DBB21371C046074B9B79DBB21A004023E3
:101680001340F8D0C046C046BD4604B080BDC04639
:10169000784E000000400640B0B584B000AF7860DE
:1016A0007B681B680F257C191800FFF737FE0300C5
:1016B00023707B681B791B4A1900100002F08FFC15
:1016C0007B680633174A1900100002F069FC164BBC
:1016D0005B78DBB23C229343DAB27B191B781B01A7
:1016E000DBB230210B40DBB21343DAB27B685B79AB
:1016F0000D491343DBB24B707B685B79002B0DD037
:10170000084B1B78DBB25BB2002B07DAC046064BF6
:101710009B79DBB21A0002231340F8D0C046BD46C5
:1017200004B0B0BD005006400040064080B582B015
:1017300000AF02003960FB1D1A703B68002B03D11B
:10174000244B180000F0C4FD234B5B78DBB2224A27
:1017500002218B43DBB253701F4B1B78DBB23B2261
:101760001340DBB21C49802252421343DBB20B70A0
:10177000C046194B9B79DBB21A001C231340082B7F
:10178000F7D1154B5B79DBB2134A40218B43DBB2B7
:101790005371C046104B9B79DBB21A0020231340D3
:1017A000F8D13B681800FFF72DFF0B4B5B79DBB2DC
:1017B000094A40210B43DBB25371C046064B9B796B
:1017C000DBB21A0020231340F8D000231800BD46D6
:1017D00002B080BD944E00000040064080B582B04B
:1017E00000AF3A60FB1D021C1A70BB1D0A1C1A7068
:1017F0003B68002B03D1134B180000F069FDFB1D63
:101800001B78180002F014FC3A68BB1D1B7811000D
:101810001800FFF78BFF0C4B1B78DBB20A4A3F2105
:101820000B40DBB21370C046074B9B79DBB29B08C1
:1018300003221340032BF7D100231800BD4602B04A
:1018400080BDC046B04E00000040064080B584B068
:1018500000AF78607B681B0C084A94466344FB60C9
:10186000FB6819687B681B041B0C01229A40FB680B
:101870000A431A60C046BD4604B080BD00700440F3
:1018800080B584B000AF78600023FB6006E00C4AAE
:101890007B68934206D0FB680133FB60FB68002B3A
:1018A000F5D000E0C046FB68002B03D0054B1800C4
:1018B00000F00EFDFB681800BD4604B080BDC046B8
:1018C00000A00640DC4E0000B0B58CB000AFF86060
:1018D000B9607A60BB68002B03D18D4B180000F013
:1018E000F7FCBB681B68002B03D18A4B180000F083
:1018F000EFFC2C23FB1800221A8000237B62BB68BC
:101900001B68BB6104233B625AE0BB681B683A6AF0
:1019100053431900786802F036FC03001A002A21AC
:101920007B181A800A00BB181B88002B02D1BB1839
:1019300001221A802A257B191B883A6A5343190011
:10194000786802F020FC03007B61BB681B687A6941
:10195000D31AFB61BB681C687B191B8801331A0012
:101960003B6A53431900786802F00DFC0300E31A48
:10197000FA699A4213D9BB681C687B191B8801332A
:101980001A003B6A53431900786802F0FCFB03001D
:10199000E31AFB617B191A887B1901321A80FA69F4
:1019A000BB699A4209D8FB69BB613B6A7B622C2305
:1019B000FB182A22BA1812881A803B6A01333B624C
:1019C0003B6A202BA1D9BB681B686421180002F078
:1019D000DAFB03001A0013005B009B18BA699A42F5
:1019E00001D94D4B90E0FB681800FFF749FF4B4BC6
:1019F0001800FFF72BFFFB68DB78DBB20C22934368
:101A0000DAB2FB68DA707B6A032B0AD97B6A072B90
:101A100007D8FB68DB7ADBB202221343DAB2FB6839
:101A2000DA72FB689B7ADBB21F229343DAB27B6ADD
:101A3000DBB2013BDBB21343DAB2FB689A72FB689C
:101A40009B7ADBB21F229343DAB22C217B181B88CE
:101A50001B0A9BB2DBB21343DAB2FB681A707B1825
:101A60001B88DAB2FB685A70FB689B78DAB22F20C9
:101A70003B1813218A431A70BB681B79002B09D0CD
:101A8000BB681A793B181B781343DAB23B18102154
:101A90000A431A70FB682F203A1812789A70FB6874
:101AA0001B78DBB220229343DAB2FB681A70FB6822
:101AB0001B78DAB2BB685B795B01DBB220210B409B
:101AC000DBB21343DAB2FB681A703B18FA68D278BB
:101AD0001A70BB689B79002B05D03B183A18127816
:101AE00008210A431A70BB68DB79002B06D02F222D
:101AF000BB18BA18127804210A431A70FB682F2207
:101B0000BA181278DA7000231800BD460CB0B0BDC8
:101B1000144F0000304F0000B50400000A003410DC
:101B200080B582B000AF78607B68002B03D10C4B8E
:101B3000180000F0CDFB7B68E12252021A607B683E
:101B400000221A717B6800225A717B6800229A7108
:101B50007B680022DA71C046BD4602B080BDC04637
:101B6000584F000080B584B000AF786039600B2119
:101B70007B1800221A707B181B78DBB20133DAB2B3
:101B80007B181A703A6880231B02134006D07B68CA
:101B900080225A713B68154A13403B603A688023A3
:101BA000DB01134006D07B6840225A713B68104A23
:101BB00013403B603B681F2213400AD03B68DBB2F6
:101BC0001F221340DAB27B681A713B681F229343CD
:101BD0003B603B68002B02D0064BFB6001E000231A
:101BE000FB60FB681800BD4604B080BDFF7FFFFFAF
:101BF000FFBFFFFFB404000080B584B000AFF86001
:101C0000B9607A60BB68002B10D10D4B180000F052
:101C10005FFBC046FB681B79DBB25BB2002BF9DAD5
:101C2000BB685A1CBA601A78FB68DA717B685A1E66
:101C30007A60002BEDD1C046C046BD4604B080BDE1
:101C4000744F000080B586B000AFF860B9607A606C
:101C5000BB68002B44D1274B180000F039FBFB6810
:101C6000180002F0F0F903007B617B690822134041
:101C700007D0FB6808211800FFF774FF9723DB00EB
:101C800034E07B690422134006D0FB68042118006D
:101C9000FFF768FF184B29E07B690222134006D04A
:101CA000FB6802211800FFF75DFF144B1EE07B6903
:101CB0000122134006D0FB6801211800FFF752FFF4
:101CC0000F4B13E0FB681B79DBB21A002023134093
:101CD000C5D0BB685A1CBA60FA68D279D2B21A7001
:101CE0007B685A1E7A60002BECD100231800BD4699
:101CF00006B080BD8C4F0000B9040000BA0400009B
:101D0000BB04000080B500AF044B1A68044B1B688D
:101D1000044819009047C046BD4680BDA8F8FF1F83
:101D2000A4F8FF1F00A0064080B584B000AF786023
:101D30007B681B0C084A94466344FB60FB68196887
:101D40007B681B041B0C01229A40FB680A431A6043
:101D5000C046BD4604B080BD0070044080B584B06C
:101D600000AF78600323BB600023FB6009E00E4BEB
:101D7000FA689200D3587A689A4207D0FB68013318
:101D8000FB60FA68BB689A42F1D300E0C046FA688B
:101D9000BB689A4203D3054B180000F099FAFB6820
:101DA0001800BD4604B080BDA44F0000BC4F000029
:101DB000B0B586B000AFF860B9607A60BB68002B40
:101DC00003D16F4B180000F083FABB681B68002B2F
:101DD00003D16C4B180000F07BFA16243B1900224B
:101DE0001A801523FB1800221A7000233B61BB6880
:101DF0001B681B011900786802F0C5F903001A007E
:101E00003B191A803B191B88002B02D13B19012278
:101E10001A8016257B191B881B011900786802F0AF
:101E2000B2F903001A00BB681B68D31A3B61BB6898
:101E30001C687B191B8801331B011900786802F0AC
:101E4000A2F90300E31A3A699A4211D9BB681C68E7
:101E50007B191B8801331B011900786802F093F984
:101E60000300E31A3B617B191A887B1901321A803F
:101E7000BB681B686421180002F085F903001A0092
:101E800013005B009B183A699A4201D93E4B72E0FD
:101E9000FB681800FFF762FF02003C4B9200D3582A
:101EA0001800FFF741FFFB68DB78DBB20C2293439D
:101EB000DAB2FB68DA70FB681B78DBB21F2293434F
:101EC000DAB216217B181B881B0A9BB2DBB21343C4
:101ED000DAB2FB681A707B181B88DAB2FB685A709A
:101EE000FB689B78DAB215203B1813218A431A70DD
:101EF000BB681B79002B09D0BB681A793B181B788B
:101F00001343DAB23B1810210A431A70FB681520FC
:101F10003A1812789A70FB681B78DBB22022934340
:101F2000DAB2BB685B795B01DBB220210B40DBB22C
:101F30001343DAB2FB681A703B18FA68D2781A7049
:101F4000BB689B79002B05D03B183A181278082102
:101F50000A431A70BB68DB79002B06D01522BB1828
:101F6000BA18127804210A431A70FB681522BA18AD
:101F70001278DA7000231800BD4606B0B0BDC04626
:101F8000E84F000000500000F5030000B04F0000D3
:101F900080B582B000AF78607B68002B03D10C4B1A
:101FA000180000F095F97B68E12252021A607B6804
:101FB00000221A717B6800225A717B6800229A7194
:101FC0007B680022DA71C046BD4602B080BDC046C3
:101FD0002850000080B586B000AFF860B9607A6024
:101FE000BB68002B30D11D4B180000F071F9FB6865
:101FF000180002F03BF803007B617B690822134064
:1020000001D0174B26E07B690422134001D0154B09
:1020100020E07B690222134001D0134B1AE07B6958
:102020000122134002D0FD239B0013E0FB681B79C3
:10203000DBB21A0020231340D9D0BB685A1CBA6007
:10204000FA68D279D2B21A707B685A1E7A60002B75
:10205000ECD100231800BD4606B080BD4050000002
:10206000F1030000F2030000F303000080B500AFAD
:10207000044B1A68044B5B68044819009047C0463B
:10208000BD4680BDB8F8FF1FACF8FF1F00B006408A
:1020900080B500AF044B1A68044B9B6804481900D4
:1020A0009047C046BD4680BDB8F8FF1FACF8FF1F83
:1020B00000C0064080B582B000AF7860084A094B86
:1020C000D358094A1A407B689906C0231B050B4068
:1020D00003491343034A8B50C046BD4602B080BD3E
:1020E0000070044004100000FFFFFFF380B582B0D1
:1020F00000AF0120FFF7DEFFFFF736F903007B603A
:102100007B68E122510204480322FEF781F9C046B0
:10211000BD4602B080BDC04600A0064080B500AFFD
:10212000034A044B0449D150C046BD4680BDC04659
:1021300000700440441000000000031080B582B01D
:1021400000AF7860034B7A681A60C046BD4602B0A3
:1021500080BDC046A0F8FF1F80B582B000AF02006E
:10216000FB1D1A700A4B1B78DBB238229343DAB29C
:10217000FB1D1B78DB00DBB238210B40DBB20449CE
:102180001343DBB20B70C046BD4602B080BDC046F3
:102190000040064080B500AFFFF7C0FF104B1800AD
:1021A000FFF77AFA0F4B1800FFF7C8FF002318005B
:1021B000FFF7D2FF0C4B1A0000210020FFF70EFBA7
:1021C0000223002100221800FFF78AF9074B1800AC
:1021D000FFF7F0F8064B074A1A60C046BD4680BDBF
:1021E0006C50000000127A005F5000006450000044
:1021F00084F0FF1F006CDC0280B584B000AF786013
:102200007B681B0C084A94466344FB60FB681968B2
:102210007B681B041B0C01229A40FB680A431A606E
:10222000C046BD4604B080BD0070044080B584B097
:1022300000AFF860B960FB1D1A70FB68BA689200C5
:10224000D358094A1A40FB1D1B781902E023DB0012
:102250000B401A431100FB68BA689200D150C04687
:10226000BD4604B080BDC046FFF8FFFF80B500AF9B
:102270000D4B1800FFF7C0FF0C4B02220121180084
:10228000FFF7D4FF094B022202211800FFF7CEFF0F
:10229000074A084BD358064907229343054A8B50F7
:1022A000C046BD4680BDC0460900381000900440BD
:1022B000007004401010000080B500AF034A88236E
:1022C0005B010021D150C046BD4680BD0070044076
:1022D00070B505000E4C0F48210001F02FFF2100C2
:1022E000280001F02BFF0C4A111DCB6F013BCB677F
:1022F000002B07DB936F591C91670A221A7000F0BC
:102300000DF870BD21000A2000F02EF8F7E7C04656
:1023100034F9FF1F78500000BCF8FF1F1820014956
:10232000ABBE7047260002002023C26810B59A4356
:10233000C2608369826A040093420CD000F0BCF84A
:10234000E368074A1A4010231343E360A36AA361BA
:102350002369E3622360E268024B1340E36010BD2F
:10236000EFCFFFFFBFBFFFFFF8B5CA684F4B0500B7
:1023700013400C00CB60930602D50800FFF7D4FF92
:10238000A268E668531C0FDAB3050DD402235B4242
:102390009B1AA36090235B021E432368E6605A1CCD
:1023A00022601D70E8B20AE0414A3240022A07D09A
:1023B0000023A36080331E43E66001204042F8BD45
:1023C00080213C4B090233408B420AD1002120007E
:1023D00000F04CF9E3689B0602D52000FFF7A4FF4C
:1023E000E6689023F0225B0233431201E360164259
:1023F00010D1606901F057FF002821D073051FD567
:1024000023002433236123600123E36192235B02D1
:102410003343E36090210901226826690B4225D0ED
:10242000E36A9A4200D91300991BB34217D1731C77
:10243000E3622360E3695A1EA26023633570B1E74B
:1024400080277F00380000F001F99423E2685B02E6
:1024500033431A4320612060E761E260DAE722003B
:10246000300000F059F80028E1D0A6E7511CE8B28E
:1024700021601070E26A21688A4200D91100E26985
:10248000891B22635B0504D40A2802D08A4200DD3E
:1024900088E7002322003000E6622660A36000F097
:1024A0003BF8002800D088E77CE7C046FFFFF7FF35
:1024B0008A10000010A00000C368154A70B51A40C9
:1024C000C2608222040005690168C66A1A40022AB5
:1024D00002D00120404270BD8022180052021040FC
:1024E0001342F8D0B14200D231008D4208D1002011
:1024F000E268084BE56213402560A060E360EAE70C
:1025000022002800491B00F007F80028EFD0E0E780
:10251000FFFFF7FFFFFFFEFFF7B5D5680F001400C0
:1025200056690190EB0205D5102330001D4301F0E0
:10253000B4FEA061104B1D420FD03000A16901F024
:10254000BEFE002806DA80230120E26840421343E1
:10255000E3600FE0094B1D40E56001993A0030004F
:10256000FDF7D0FF4100A3694908791A5918A16104
:102570000028E8D1FEBDC04610000200EFFFFDFFBD
:10258000F7B50027304BC21C1C689508B84217D01D
:102590002B000A3380210193EB1C9C464905002C3B
:1025A00010D10C3001F0CCF8431C09D080239B05DE
:1025B000036045608460002F44D1234B18601AE00B
:1025C0000020FEBD23688B4239D1A7686368002FC5
:1025D00009D03E688E4206D17E680333F3186360EB
:1025E000BB68A360F1E7AB4207DB634505DC8023F2
:1025F0009B05236020000C30E3E7019EB34211D914
:10260000802189052160032120008A4380210C302C
:102610005B1B82184905033B6560A2601160536033
:102620009760CEE7002F0AD19B00C01A01F088F80E
:10263000431CC5D080239B0523606560DAE7270033
:10264000A468ACE7B860D6E7FCF9FF1F10B5FFF748
:1026500097FF041E05D117220349FDF753FFFFF72B
:102660005DFE200010BDC0468D500000F7B5394B0F
:10267000C66804000D0000921E4202D102273800F5
:10268000FEBD43691800019301F00DFE071EF5D150
:10269000009B012B05D0022B2CD0002B05D002373C
:1026A000EDE7200000F05AF82D18002DE6DBB3040A
:1026B00004D52368E26A9A4200D2E362A169A94282
:1026C0000EDCE26A2368934200D213002269581894
:1026D0000092801AA84203DB206B0A18AA4228DC69
:1026E00020231E430023A562A36063601A4B1E4093
:1026F000E660C4E7019801F0D0FDE268002804DA42
:10270000802313430127E360B9E7E16A2368994214
:1027100000D90B00A1695B1821695B1A920603D5E9
:10272000A26A934200DA1300834200DA0300ED1834
:10273000BBE76D1AB20701D5281AA060F20703D5CE
:10274000009A9B1AEB1A6360009B5D192023256099
:102750009E43CBE703001000BFCFF7FFC26893078B
:1027600005D1212201200E4B40421A6070472023E0
:10277000134012030AD5002B02D0806A0138F5E716
:102780000368826900699B18181AF7E7002B01D0CB
:10279000806AEBE70368826900699B18181AE5E70D
:1027A00000FAFF1F37B5184C18492200002000F02E
:1027B000E9FF802380225B0000212000D20000F08E
:1027C00057FF134C134D22002900012000F0DAFFBF
:1027D000802380225B0000212000D20000F048FF0F
:1027E0000D4B1B680193022B0DDD0C4C29002200C0
:1027F000022000F0C7FF80238022002120005B0020
:10280000D20000F035FF37BDBCF8FF1FA550000017
:10281000F8F8FF1FA75000007450000034F9FF1FA4
:10282000F8B5802703250D4B0D4C1E68BF03AE4243
:102830000BDC0C4800F0E0FF0B4800F0DDFF022E3F
:1028400002DD0A4800F0D8FFF8BDE3683B4202D041
:10285000200000F0D1FF01353C34E8E7745000005F
:1028600070F9FF1FBCF8FF1FF8F8FF1F34F9FF1FB6
:10287000F0B5CFB00A92559A0400089200220B934B
:10288000549B069218785A1C0792002802D1069889
:102890004FB0F0BD252839D1042280210025022720
:1028A0009446079B243889001A00167801332B2E92
:1028B0004FD046D8202E4ED0232E4FD02A2E4FD187
:1028C000089980C9002F02DA01207F424540023278
:1028D0001E7807920891FB43DB173B4014930023BB
:1028E0000C932E2E57D1079B1E782A2E45D00A21F5
:1028F00001333200303AD0B20793092846D80C98F9
:102900001E78484312180C920133F2E7069B0B9A8B
:102910005D1CDB179A4204DC0CD10A9B069A934299
:1029200008D9A368013BA360002B06DB23685A1C6F
:1029300022601870079B0695A4E72100FFF714FD9D
:10294000F8E72D2E03D0302EB8D10D43ACE7054368
:10295000AAE73D43A8E762461543A5E70822FBE73F
:1029600000270A203200303AD1B207930929B2D8A1
:1029700047431E78D7190133F4E7089B04CB0C9228
:10298000079A089313005678023307930C9B002B89
:1029900018DB10231D436C2E09D1079B1E786C2E6B
:1029A00013D15E7860231D43079B023307934C2E9F
:1029B00001D0712E0FD1079B1E7860231D43079B0A
:1029C000013314E000230C93E5E7079B01330793E1
:1029D00020231D43EBE7682E70D1079B1E78682EDD
:1029E00007D180235B001D43079B5E78023307936A
:1029F00004E0079B0133079380231D43782E09DCF5
:102A0000572E67DC412E00D1FDE200DD89E0002E6B
:102A100000D1EDE0149B0122013B0C932B001340ED
:102A20003993069B15421DD130233893AB0501D451
:102A300020233893069B0C9D2293DB172393013DA3
:102A400000D48EE000239F4200DD0C9B069A9B1869
:102A5000149A911E0022974202DD14980132121A34
:102A600052180C920B995A1C0692DA17914203DC09
:102A70000CD10A9A9A4209D9A368013BA360002BA2
:102A800000DA8FE023685A1C22601E70399B089F71
:102A9000002B10D0069B0C9D2093DB172193013D4A
:102AA00000D484E00C9B0C9ADB43DB171340069A9E
:102AB000D3180693089F069D08973BE76A2E04D11A
:102AC00040231D43079B1E787AE77A2EFAD0742E96
:102AD00094D1F7E73000583820289BD801F0CFFB7D
:102AE00066019AFF9AFF9AFF9AFF9AFF9AFF9AFF50
:102AF0009AFF93029AFF3D00590227002700270002
:102B00009AFF59029AFF9AFF9AFF9AFF8C00C80118
:102B1000BE019AFF9AFFAC009AFFF0019AFF9AFF5C
:102B20009501022332009A43452A00D072E78023A0
:102B3000DB002B43EA0601D406220C921D00002282
:102B400000230721049205930023089F3893073739
:102B50008F4303CF4490459188E1089B40CB089375
:102B600058E70B9B239A934204DC0DD10A9B229ACF
:102B7000934209D9A368013BA360002B0DDB2368B6
:102B80005A1C2260389A1A700120229A239B002135
:102B900012184B412292239351E721003898FFF7F6
:102BA000E3FBF1E721003000FFF7DEFB6EE70B9B54
:102BB000219A934204DC0DD10A9B209A934209D9B1
:102BC000A368013BA360002B0DDB23685A1C226025
:102BD00020221A700120209A219B002112184B41BB
:102BE000209221935BE721002020FFF7BDFBF1E756
:102BF000079B013B07935DE7089B1F1D6B0606D5EE
:102C0000089B069A1B681A60D2175A6053E7AB06F6
:102C100004D5089B069A1B681A604CE7EB0504D59F
:102C2000089B069A1B681A7045E72B06F1D5089B8E
:102C3000069A1B681A803EE7089F08CF3893002B3E
:102C400001D1C64B3893389800F04EFD0600EB06D4
:102C500003D50C9B984200DD1E00149B2A009B1B91
:102C6000089301231A4014921D4218D12F330C935C
:102C7000AB0501D420230C93069B089D1E93DB1704
:102C80001F93013D2CD5089B089ADB43DB171340AB
:102C9000069AD2180692089A013AD31A0893002588
:102CA000069B2493DB172593B5423ADBF043069B42
:102CB000C01706409B190693149B002B00D1FAE61F
:102CC000069B089D2893DB172993013D4DD5089B52
:102CD000089ADB43DB171340069AD3180693EAE6FB
:102CE0000B9B1F9A934204DC0DD10A9B1E9A9342C0
:102CF00009D9A368013BA360002B0DDB23685A1C94
:102D000022600C9A1A7001201E9A1F9B0021121833
:102D10004B411E921F93B4E721000C98FFF724FB50
:102D2000F1E70B9B259A934204DC0ED10A9B249A6F
:102D300093420AD9A368013BA360002B0FDB2368F1
:102D40005A1C2260389A525D1A700120249A259BE1
:102D5000002112184B41013524922593A4E7389B9A
:102D60002100585DFFF700FBEFE70B9B299A934288
:102D700004DC0DD10A9B289A934209D9A368013B30
:102D8000A360002B0DDB23685A1C226020221A70DE
:102D90000120289A299B002112184B41289229933F
:102DA00093E721002020FFF7DFFAF1E740232A0014
:102DB000089F1A401D421DD00722073797430CCFAA
:102DC0000492059380232A001A401D4216D06B46B8
:102DD0001B8A049300230593614B9C462B0701D467
:102DE000604B9C46604B3893EB0600D48AE05F4909
:102DF0000D4087E008CF05920493E3E7EB05EBD5A0
:102E00006B461B7C05920493E6E740232A00089F4B
:102E10001A401D4217D00722073797430CCF049260
:102E2000059380232A001A401D4210D06B461B8A4E
:102E30000493002305934E4B9C462B0701D4494B2A
:102E40009C464C4BCFE708CF05920493E9E7EB058E
:102E5000F1D56B461B7C05920493ECE7089F08CFE5
:102E6000049300230593434B3893414B9C4649E020
:102E700040232A00089F1A401D4216D00722073718
:102E800097430CCF0492059380232A001A401D42D9
:102E90000FD06B461B8A049300230593364B9C4648
:102EA0002B0700D5ADE02F4B8FE008CF05920493A0
:102EB000EAE7EB05F2D56B461B7C05920493EDE740
:102EC00040232A00089F1A401D4257D00722073787
:102ED00097430CCF0492059380232A001A401D4289
:102EE00050D06B461B8A04930023059310212B00BE
:102EF0001C480B40844638930D4203D01B4B1D40A9
:102F000000233893069B0A980B993E93DB173F9357
:102F10003E9A3F9B801A994101220C9B524240935A
:102F200063460890099142924392552000224193B2
:102F300046A950540132202AFBD18222D2001542E8
:102F400001D1012240926E2E65DC472E00DD92E019
:102F5000402E00DD83E000230C9392E0A950000096
:102F6000B0500000A4500000BC500000FFFDFFFF67
:102F7000B3500000CD500000B650000008CF0592BD
:102F80000493A9E7EB05B1D56B461B7C059204932E
:102F9000ACE7089F6B061AD50722073797430CCF7B
:102FA0000E920F932B0617D56B4638229B5E0E931D
:102FB000DB170F930F9B002B16DA0E980F99002347
:102FC00042428B4104920593C54B9C4619E008CFC1
:102FD0000E93DB170F93E5E7EB05EBD56B46382235
:102FE0009B181B785BB2E2E70E9A0F9B0492059345
:102FF000BC4B9C46AB0704D4BB4B9C466B0700D430
:1030000051E70023EFE610231D4200D08FE51D435A
:10301000033B0C938BE530006F3809289BD801F0F7
:103020002EF9CC00B2009AFF9AFF9AFF9AFF47014F
:103030009AFF9AFFB20001F022F9A6008EFF8EFFE0
:103040008EFF8EFF8EFF8EFF8EFF8EFF3D018EFF67
:103050008EFF3B013D013D013D018EFF3B013200F2
:103060000123413A9340512218001040134200D0EE
:1030700020E10C9005E03000002358380C93112813
:10308000D9D980232A00DB001A403A921D4200D190
:103090001FE100234093429B002B01DD013B409345
:1030A000439B002B03DD409A013BD31840930C9BBC
:1030B000409A41989E1800F017FB149B9E1B331AF0
:1030C000389301232B403B93884B1D4200D13CE1B8
:1030D00000231293DB171393419B129E5A1C4192BB
:1030E0001B781493002B00D032E13B9B002B15D1B1
:1030F00030333993AB0501D420233993F317389D2E
:103100001A961B93013D00D443E1389B38995A1E0F
:10311000DB43DB170B40D21A3892F6183A9B002B90
:1031200000D08FE1F31710961193409B109E013B46
:103130004093002B00DBD7E1F3171D930C9B1C96EB
:103140005D1E002B00DDF0E10C9BD843C01718403A
:1031500086197BE10F23049E1E40389B9E5D059BD4
:1031600056541B079C46049B01321B091800059B03
:103170001E096346034304930596049E059B0C9227
:103180001E43E7D17DE7002246A9F6E70721049810
:1031900008400599303049078C4604999854CE0868
:1031A00005990133C808614631430491059004989C
:1031B00005990C930843E9D163E7002346AAF6E793
:1031C000059B049ADB0752081A43059B32925B0861
:1031D0003393049A059B92089B071A43059B3492EC
:1031E0009B08359334983599329A339B12184B418A
:1031F00019071009084319092C902D912C982D9925
:1032000012184B411906100A0843190A2E902F91E3
:103210002E982F9912184B411904100C0843190CC1
:10322000309031913098319912184B4100213C93E4
:103230003D913C983D9912184B415907D0080843DD
:103240002A9000210620DB082B93049A059B121874
:103250004B412A982B990C920D930A22002300F0DF
:10326000CCFF0C9A0D9B121A8B4110001900020919
:103270001B071A430B0936923793369837992A9AC7
:103280002B9B801859410A224243049B04900591CC
:1032900030339B1A9C4628233CAAD2186346935588
:1032A0000136049B059A0C96134300D088E7E8E6A4
:1032B0000026F6E743AB039342AB029340AB019386
:1032C00041AB009330002B00569E46AA44A9B0475C
:1032D000CFE6409B0C9A9B1A00D4E7E63A9BE5E6C2
:1032E000B8500000BA5000008B50000001020000EE
:1032F000099B159A934204DC0DD1089B149A9342C2
:1033000009D9A368013BA360002B19DB23685A1C71
:10331000226020221A700120149A159B0021121895
:103320004B4114921593389B5A1E149BD31ADFD528
:10333000389B3899DB43DB170B40D21A3892C8E62A
:1033400021002020FFF710F8E5E700220023E8E73E
:10335000099B139A934204DC0DD1089B129A934265
:1033600009D9A368013BA360002B0DDB23685A1C1D
:103370002260149A1A700120129A139B00211218CD
:103380004B4112921393A7E621001498FEF7ECFF2D
:10339000F1E7099B1B9A934204DC0DD1089B1A9A12
:1033A000934209D9A368013BA360002B0DDB23687E
:1033B0005A1C2260399A1A7001201A9A1B9B00210C
:1033C00012184B411A921B939CE621003998FEF784
:1033D000CBFFF1E7149A46ABD05CF3173C2825D01D
:1033E0003E286BD116961793439B169D013B439342
:1033F000002B23DB099B179A934204DC0DD1089B19
:10340000169A934209D9A368013BA360002B50DBB5
:1034100023685A1C226030221A700120169A179BCA
:10342000002112184B4116921793DDE71896199355
:10343000429B189D013B4293002B19DA2E00149BEE
:10344000013314930C9B149A9342C3DC3B9B002BD7
:103450000BD0F317389D26962793013D00D486E0C4
:10346000389BD843C01718403618069B9B1935E483
:10347000099B199A934204DC0DD1089B189A934238
:1034800009D9A368013BA360002B0DDB23685A1CFC
:10349000226030221A700120189A199B00211218FC
:1034A0004B4118921993C3E721003020FEF75CFFCF
:1034B000F1E721003020FEF757FFAEE7099A751CAF
:1034C000934203DBBAD1089BB342B7D9A368013B4F
:1034D000A360002B04DB23685A1C22601870ADE740
:1034E0002100FEF741FFA9E7099B119A934204DCF2
:1034F0000DD1089B109A934209D9A368013BA360A0
:10350000002B0DDB23685A1C226030221A70012028
:10351000109A119B002112184B411092119304E64E
:1035200021003020FEF720FFF1E7099B1D9A93420E
:1035300004DC0ED1089B1C9A93420AD9A36846AAC0
:10354000013B505DA360002B0DDB23685A1C2260F9
:10355000187001201C9A1D9B002112184B411C92CF
:103560001D932B00ECE52100FEF7FEFEF1E7099B21
:10357000279A934204DC0DD1089B269A934209D9DD
:10358000A368013BA360002B0DDB23685A1C22605B
:1035900020221A700120269A279B002112184B41E5
:1035A0002692279359E721002020FEF7DDFEF1E760
:1035B000F0B507000C0015001E0097B0002803D1DD
:1035C000002926D1013406AF3C22002107A800F0D3
:1035D0009BFD0A23621E00240A930F4B009509935A
:1035E0000E4B0196029307A823000797FFF740F9B7
:1035F000099B05000593013B0993A34204DB079B4C
:103600001C70280017B0F0BD200007A9FEF7ACFE23
:10361000F7E701256D42F4E7FFFFFF7F6B410000F4
:103620000FB473B506AB40CB01213200684601935D
:10363000FFF7BEFF041E14DD451C2800FEF7A0FFA7
:10364000009000280DD032002900019BFFF7B0FF49
:10365000064B22000099186DFCF754FF009800F00B
:1036600057FD200076BC08BC04B01847BCF8FF1F0B
:10367000F0B5C56804000120AE070CD080208000A2
:10368000824213D08020C000824205D080204000BA
:1036900082420BD0FF38F0BD2100012324312A43A0
:1036A000002021612160E361E260F4E7024F5E1EC9
:1036B0000120BE42F3D9EEE7FEFFFF0010B5084A35
:1036C0001368002B04D1FFF7ABF8FEF727FE10BDFF
:1036D000013B1360034A9B009B589847EFE7C046A5
:1036E000F4F9FF1F70F9FF1F032310B5411C0200FE
:1036F000184217D1104C13681048181898432042EC
:1037000017D0DCB2501C002C11D0FF242402901CD6
:1037100023420CD0FF2000040340581E8341D318DD
:10372000D81C04E00130421E1278002ADFD1401A72
:1037300010BD0432DFE7C04680808080FFFEFEFEC1
:1037400070B50D4D04002B68002B01D10B4B2B6085
:1037500003232E6803349C433419200000F09CF8A6
:10376000002802D12C60300070BD0C220126044BD1
:1037700076421A60F7E7C046F8F9FF1F04FAFF1F08
:1037800000FAFF1FF7B50D0001901000140000F0C3
:1037900033F82B78722B1CD0772B1DD0612B26D1C0
:1037A000144A593B0220691C03278446042601253C
:1037B00008782B2813D0622816D0E260019A626143
:1037C0001B0704D5022200212000FEF74FFF200036
:1037D000FEBD00230122E5E704230222E2E7604662
:1037E0003A4303430131E3E732432B43FAE7002432
:1037F000EDE7C04602800000F0B5C568040089B05E
:10380000AB0722D02B0718D44769066900F022F8CD
:10381000380000F03CFD2B0502D5300000F078FCAC
:103820000B4BAD0DAD059D4207D120226846216AA4
:1038300000F04BFD684600F09AFC3C22002120007D
:1038400000F062FC002009B0F0BD01204042FAE720
:10385000000080AD73B5002813D000F029F80500F2
:10386000280076BD30006043094BC01800F020F8F6
:10387000002801D001256D420134019BA342F1DCF7
:10388000EEE7044B04001B6805003C260193F4E7B7
:10389000BCF8FF1F7450000003000448002803D048
:1038A00000228342524110007047C04604FEFF1FB1
:1038B000C36870B503221E0004001640134211D0E5
:1038C0009B0611D5856AFEF72FFDE268094B2000A3
:1038D0001340E360FEF7F0FD0022060029002000FF
:1038E000FEF7C4FE300070BD036882699D1803694D
:1038F000ED1AEAE7FFCFFFFF80B582B000AF786036
:103900000A00FB1C1A70FB1C1B78002B08D07B687C
:10391000DB78DBB208221343DAB27B68DA7007E0A7
:103920007B68DB78DBB208229343DAB27B68DA701B
:10393000C046BD4602B080BD80B582B000AF7860A1
:103940000A00FB1C1A70FB1C1B78002B08D07B683C
:10395000DB78DBB204221343DAB27B68DA7007E06B
:103960007B68DB78DBB204229343DAB27B68DA70DF
:10397000C046BD4602B080BD80B582B000AF786061
:103980000A00FB1C1A70FB1C1B78002B08D07B68FC
:10399000DB78DBB208221343DAB27B68DA7007E027
:1039A0007B68DB78DBB208229343DAB27B68DA709B
:1039B000C046BD4602B080BD80B582B000AF786021
:1039C0000A00FB1C1A70FB1C1B78002B08D07B68BC
:1039D000DB78DBB204221343DAB27B68DA7007E0EB
:1039E0007B68DB78DBB204229343DAB27B68DA705F
:1039F000C046BD4602B080BDF0B5D6464F464646ED
:103A0000C0B584B000AF786000247B681B6898461E
:103A10007B685D687B689E687B68DB6899467B682D
:103A20001B699A463AE01B234246DA41310029409D
:103A3000EB43484603400B43D31853449A46A30034
:103A400079682020CB181B181B781906A3000133B6
:103A5000786820229446C31863441B781B041943DA
:103A6000A3000233786820229446C31863441B786D
:103A70001B020B43A10003317868202294464118B1
:103A8000614409780B435344FB60CA46B1460223A4
:103A9000DD412E004546FB68984601340F2CC2DDFF
:103AA0007B681B6843441A007B681A607B685B680C
:103AB000EA187B685A607B689B68F2187B689A609A
:103AC0007B68DB684B441A007B68DA607B681B69A3
:103AD00053441A007B681A617B6800221A66C0464C
:103AE000BD4604B0E0BCBA46B146A846F0BDB0B58C
:103AF0008EB000AF78637B6B1B6E372B24DD7B6B46
:103B0000196E4A1C7B6B1A667B6B20225B189A1815
:103B1000802313707B6B20331A007B6B1B6ED018D5
:103B20007B6B1A6E40239B1A1A00002100F0ECFAFE
:103B30007B6B1800FFF760FF7B6B20333A2200217C
:103B4000180000F0E1FA18E07B6B196E4A1C7B6BE1
:103B50001A667B6B20225B189A18802313707B6B8C
:103B600020331A007B6B1B6ED0187B6B1A6E3823C8
:103B70009B1A1A00002100F0C7FA7B6B9A69DB6977
:103B80001B0EBB610023FB613B7E796B58228B547B
:103B90007B6B9A69DB691B0C3B6100237B613B7C7F
:103BA0007A6B592153547B6B9A69DB691B0ABB60A2
:103BB0000023FB60397A7B6B5A2299547B6B9A699C
:103BC000DB691B003B6000237B6039787B6B5B22E9
:103BD00099547B6B9A69DB691902100EB862B86A56
:103BE0000843B8621B0EFB622823FB1819787B6B15
:103BF0005C2299547B6B9A69DB691904100C38625A
:103C0000386A084338621B0C7B622023FB18197842
:103C10007B6B5D2299547B6B9A69DB691906140AE8
:103C20000C431D0AE1B27B6B5E2299547B6B9A694F
:103C3000DB69D1B27B6B5F2299547B6B1800FFF775
:103C4000DBFEC046BD460EB0B0BD80B584B000AF4F
:103C5000786039607B689B6E002B00D089E07B68C0
:103C60005B6E002B06D17B681800FFF740FF7B6876
:103C700001225A667B681B681ABA7B681A607B68E7
:103C80005B681ABA7B685A607B689B681ABA7B6863
:103C90009A607B68DB681ABA7B68DA607B681B69AC
:103CA0001ABA7B681A617B68FB60FB681A783B680C
:103CB0001A703B680133FA6852781A703B68023315
:103CC000FA6892781A703B680333FA68D2781A70EF
:103CD0003B680433FA6812791A703B680533FA6856
:103CE00052791A703B680633FA6892791A703B6809
:103CF0000733FA68D2791A703B680833FA68127A87
:103D00001A703B680933FA68527A1A703B680A33B2
:103D1000FA68927A1A703B680B33FA68D27A1A7092
:103D20003B680C33FA68127B1A703B680D33FA68F3
:103D3000527B1A703B680E33FA68927B1A703B68AC
:103D40000F33FA68D27B1A703B681033FA68127C22
:103D50001A703B681133FA68527C1A703B68123350
:103D6000FA68927C1A703B681333FA68D27C1A7036
:103D700000E0C046BD4604B080BDB0B586B000AF1F
:103D8000F860B9607A60FB689A69DB697968C90094
:103D90000C0000210D0012196B41F9688A61CB619A
:103DA00000237B612EE07B687B61FB681B6E1A0041
:103DB0007B68D318402B04D9FB681B6E4022D31AB2
:103DC0007B61FB6820331A00FB681B6ED3187A698D
:103DD000B968180000F094F9FB681A6E7B69D21874
:103DE000FB681A667B69BA68D318BB607B697A681E
:103DF000D31A7B60FB681B6E402B03D1FB68180055
:103E0000FFF7FAFD7B68002BCDD1C046C046BD460A
:103E100006B0B0BDB0B5D6B000AFF860B9607A609A
:103E20003B60BA68F96898243B19180000F068F9FB
:103E3000BB68402B07D93A191023FB181100180052
:103E4000FFF703FF21E040241BE0BB689C4203D244
:103E5000FB681B191A7800E0002298217B181A557C
:103E60007B181B5D36225340DAB28C235B00FB18B3
:103E70001A557B181B5D5C225340DAB2D823FB181D
:103E80001A5523005C1E002BDFD110243B191800AB
:103E9000FCF764FB8C235B00F9183B1940221800E7
:103EA000FFF76BFF3A6879683B191800FFF765FF69
:103EB00084257A193B1911001800FFF7C6FE3B193B
:103EC0001800FCF74BFBD823F9183B1940221800C7
:103ED000FFF753FF79193B1914221800FFF74DFF24
:103EE000B4235B00FB181A683B1911001800FFF798
:103EF000ACFEC046BD4656B0B0BD80B586B000AF82
:103F0000F860B9607A6000237B610EE0FA687B6933
:103F1000D3181A78B9687B69CB181B789A4201D0FC
:103F2000002307E07B6901337B617A697B689A42F1
:103F3000ECD301231800BD4606B080BD90B587B014
:103F400000AFF860B9607A6000237B611FE07B6995
:103F50005B00BA68D3181B781800FCF729FD030032
:103F60001B015CB27B695B000133BA68D3181B7814
:103F70001800FCF71DFD03005BB2234359B2FA6839
:103F80007B69D318CAB21A707B6901337B617A6985
:103F90007B689A42DBD3C046C046BD4607B090BDA1
:103FA00080B584B000AF786039600F203B187A6824
:103FB00012781A703B183A1812785F210A401A706A
:103FC0003B6819783B183A1812780A431A707B68D4
:103FD0003A1812781A70C046BD4604B080BD80B54C
:103FE00084B000AF78600A00FB1C1A700F203B18E9
:103FF0007A6812781A703B183A1812780F218A439F
:104000001A703B183918FA1C097812780A431A708A
:104010007B683A1812781A70C046BD4604B080BD5D
:1040200080B500AFFDF7FCF803001800BD4680BD69
:1040300080B582B000AF0200FB1D1A70002318008B
:10404000BD4602B080BD80B584B000AF78607B68AB
:104050001B79DBB21A007B685B79DBB21B0213436E
:10406000FB60FB681800BD4604B080BD80B584B01D
:1040700000AF78607B681B79DBB21A007B685B79E4
:10408000DBB21B021343FB60FB681800BD4604B0A3
:1040900080BD80B584B000AFF860B9607A600CE094
:1040A000C046FB681B79DBB25BB2002BF9DABB6858
:1040B0005A1CBA601A78FB68DA717B685A1E7A60FB
:1040C000002BEDD1C046C046BD4604B080BD80B5D2
:1040D00000AFFEF75FF8C046BD4680BD80B500AFBB
:1040E000C046BD4680BD80B500AFFEF7BFF8C046F4
:1040F000BD4680BD10B5FEF755FBFCF745FB10BD76
:1041000010B500F091F810BD10B500F0A3F810BD87
:1041100010B5002811D080210C3849050160826853
:10412000002A0AD013688B4207D1436854680333CE
:104130001B19436093688360F1E710BD70B50C00F4
:104140000500287800280FD0A368013BA360002B4E
:1041500005DB23685A1C226018700135F1E7210045
:10416000FEF702F9431CF8D170BD0020704710B56E
:104170000400FFF7B9FA0100200000F09AF810BD22
:1041800003000B4321D4002931D00122D2070309B7
:1041900001E0090112099942FBD9430801E04900F5
:1041A00052089942FBD900E04908401A07D352410E
:1041B000FAD301461046704749084018F7D29218C2
:1041C000FAD34018014610467047CB0F00D0494241
:1041D000021000D54042534008B5FFF7D4FF0CBC95
:1041E000521000D34042002A00D549421847F446F5
:1041F000002000F001F86047704710B54343514379
:10420000C918040C130C5C43091992B2040C5443F2
:1042100080B2434350432204240C801861411A04A5
:104220001B0C8018594110BD8446830708D18B07A9
:1042300006D1131F04D304C904C0043BFBD21A1DCA
:10424000524205D0891A801A8B5C83540132FBD10B
:10425000604670478446043A09D3830707D10906AC
:104260000B0A19430B0C1943043A02C0FCD2043266
:1042700003D001700130013AFBD1604670478C4693
:10428000411E7144095E49008E446146704703B483
:1042900069460220ABBE02B0704703B469460C20E9
:1042A000ABBE02B0704703B469460920ABBE02B092
:1042B000704703B469460E20ABBE02B0704703B42A
:1042C00069460A20ABBE02B070470FB469460D20A4
:1042D000ABBE04B07047FFFF426F756C646572003F
:1042E00042756666616C6F6573000000373537375D
:1042F0004235464642303538313935444533393711
:104300003837373342343732453932443032313638
:104310003837334545314132313730313537433223
:1043200030353445444334314535384437463934E3
:1043300039303530323533463843453144353545EB
:104340003642383645363241454433460000000097
:104350006D61696E2E633A3434203A20646B5F6C71
:10436000656E203C3D2073697A656F6628616374D1
:104370005F726573756C74290000000025733A2024
:10438000257520697465726174696F6E7320746F2E
:104390006F6B202575206D7365630D0A00000000AA
:1043A0004641494C555245206F6E2074696D6564D5
:1043B00020746573740D0A005445535420464149D6
:1043C0004C55524553204558495354202E2E2E20EB
:1043D00065786974696E670D0A00FFFF52756E6E2D
:1043E000696E672076616C6964697479207465739D
:1043F00074732E2E2E0D0A00416C6C20746573743C
:104400007320706173736564210D0A0052756E6EBE
:10441000696E672074696D696E6720746573742EA8
:104420002E2E0D0A00FFFFFF74696D655F70626BD1
:104430006466325F686D61635F6973686100FFFF86
:1044400070626B6466322E633A3935203A207361AC
:104450006C745F6C656E202B2034203C3D207369AA
:104460007A656F662873616C74706C75732900FFD0
:1044700070626B6466322E633A313434203A2064C1
:104480006B4C656E203C2073697A656F66286163AA
:1044900063756D756C61746F722900FF61626300F2
:1044A0004333303830353743353638303031464491
:1044B000464239414235324542413236413845461D
:1044C00031303832444430330000000061626364AC
:1044D000626364656364656664656667656667688C
:1044E000666768696768696A68696A6B696A6B6C3C
:1044F0006A6B6C6D6B6C6D6E6C6D6E6F6D6E6F70EC
:104500006E6F70710000000031453932373642312C
:104510003633363938323236363832323644413430
:1045200037303738324543453536354637353739F4
:10453000000000004E6F626F647920696E737065D1
:1045400063747320746865207370616D6D6973683E
:104550002072657065746974696F6E00304644310D
:1045600031323046443845323545373045424230A5
:1045700030383436393043363438313742394646AC
:1045800044314245000000004E6F77206869732077
:104590006C6966652069732066756C6C206F662097
:1045A000776F6E6465722F42757420686973206836
:1045B00065617274207374696C6C206B6E6F7773B5
:1045C00020736F6D6520666561722F4F66206120D4
:1045D00073696D706C65207468696E672C206865FE
:1045E0002063616E6E6F7420636F6D7072656865B5
:1045F0006E642F5768792074686579207472792009
:10460000746F207465617220746865206D6F756EBB
:104610007461696E7320646F776E2F546F206272BD
:10462000696E6720696E206120636F75706C65200C
:104630006D6F72652F4D6F72652070656F706C6560
:104640002C206D6F72652073636172732075706FBB
:104650006E20746865206C616E64000036313339F9
:1046600038333336303243343545333330413246D4
:104670004635343836433130424632463242453888
:104680004641433000000000436F6C6F7261646FFD
:10469000000000005468697320697320612074650C
:1046A0007374000044384532333136384542453062
:1046B0004332354437463545353246434434433931
:1046C0004644423532313146463643390000000017
:1046D0004A656665000000007768617420646F2099
:1046E00079612077616E7420666F72206E6F7468D6
:1046F000696E3F00443735443539304344444230D5
:10470000303234394645333133444135313132303A
:1047100037334135464239453536393200000000DD
:10472000524643203231303400000000484D4143AE
:104730003A204B657965642D48617368696E67201E
:10474000666F72204D65737361676520417574688B
:10475000656E7469636174696F6E00004136314340
:1047600030413333463236343632354431323535E2
:1047700036363445463936304532353430443345A3
:10478000384431430000000070617373776F7264C6
:10479000000000006D7973616C7400003042364493
:1047A0003541454334414230314245323042364250
:1047B000373934354435373042424245374230424A
:1047C000413633390000000030423644354145431C
:1047D0003441423031424532304236423739343545
:1047E0004435373042424245374230424136333910
:1047F000313800003042364435414543344142307F
:10480000314245323042364237393435443537301B
:1048100042424245374230424136333931384539D8
:104820004630313834393030343442364330423710
:1048300043313137000000003042364435414543B2
:1048400034414230314245323042364237393435D4
:10485000443537304242424537423042413633399F
:1048600031384539463031383439303034344236D5
:10487000433042374331313731383544334638439A
:104880003234343339453743453731433945313391
:104890003546323835444143363232334434344479
:1048A0004235334145324338333238314338384466
:1048B0004130464245354245000000003042364412
:1048C000354145433441423031424532304236422F
:1048D0003739343544353730424242453742304229
:1048E0004136333931384539463031383439303052
:1048F000343442364330423743313137313835442E
:1049000033463843323434333945374345373143FE
:104910003945313335463238354441433632323306
:1049200044343444423533414532433833323831EC
:1049300043383844413046424535424531463635A4
:1049400031363436443633383431343130443245FC
:10495000444435454333344343423942423545327A
:1049600045323238334330323545433238323933C9
:10497000324643433544353442454336373339397B
:104980003043463142424645373539443031443769
:10499000414238463842443745423141434441451B
:1049A000353332373839433232303244303543339D
:1049B0004232334533453935393630424532334258
:1049C0003031334234363837433535463633343672
:1049D0003941454345384534323633353541343035
:1049E00042364443354544383142443846333743F0
:1049F000394438373139373933393438344442322D
:104A000042374442384136394138464535313844D9
:104A100041304433454545464444304537354433B9
:104A200044324638463535323545354646363443C8
:104A300031373746463139323234434432433835E0
:104A400037353539394541323246324500000000AC
:104A500030364245413336413030433144313336CC
:104A60004635363244414336374432414335333894
:104A70004531304232384542000000003036424570
:104A800041333641303043314431333646353632A6
:104A9000444143363744324143353338453130425F
:104AA0003238454232424545434645434237363027
:104AB0004641433835354539413145443137423532
:104AC000443537353338333536393837363442366E
:104AD0003033434135413244324239344639433030
:104AE0003638313341434639424641353245324307
:104AF0003538314343463733324534320000000005
:104B0000453338423234453736423730353544390B
:104B100044363031424330443133424143463241DE
:104B200042363736313136460000000036454237CE
:104B300045443436333634333041414233353337EC
:104B40004643324542463935464644373739453182
:104B5000304330300000000036454237454434369B
:104B600033363433304141423335333746433245AF
:104B7000424639354646443737394531304330307F
:104B800031313131333132383734313335353032F8
:104B9000453932393135423530314433463034329B
:104BA000383338434544333146414637364146363B
:104BB0003632433144364642323141423239303165
:104BC0004446424641374241324334313938433119
:104BD0003441343441353032000000004441344423
:104BE000393846324331343739343135323635424B
:104BF00042434437374537444530334134324130FE
:104C0000313437433632363631443446413430421B
:104C10003435344530324432393131424236314311
:104C200042373831343739424139343044374435EA
:104C300035313444394241383236414333394241C7
:104C400041423446424234423046433130353330BB
:104C500037334632423941433141363600FFFFFF98
:104C600070626B6466325F746573742E633A3437B6
:104C7000203A203000FFFFFF2573207465737420F5
:104C800025643A20737563636573730D0A00000031
:104C9000257320746573742025643A204641494C7D
:104CA0005552450D0A00FFFF9C440000A04400003F
:104CB000CC44000008450000344500005C4500007D
:104CC000884500005C4600008846000094460000CD
:104CD000A4460000D0460000D8460000F44600007C
:104CE000204700002C4700005C4700008847000078
:104CF0009447000001000000140000009C470000E1
:104D000088470000944700000100000015000000E3
:104D1000C8470000884700009447000001000000D9
:104D200020000000F447000088470000944700007E
:104D300001000000400000003848000088470000E3
:104D40009447000001000000C8000000BC480000BB
:104D50008847000094470000020000001400000093
:104D6000504A0000884700009447000002000000FD
:104D7000400000007C4A0000884700009447000083
:104D80000300000014000000004B000088470000F2
:104D90009447000064000000140000002C4B000049
:104DA00088470000944700006400000040000000B5
:104DB000584B0000D8420000E042000064000000B0
:104DC00040000000DC4B000070626B6466325F7470
:104DD0006573742E633A323236203A2074657374E8
:104DE000735B695D2E646B5F6C656E203C3D207368
:104DF000697A656F66286578705F726573756C7423
:104E00002900FFFF746573745F6973686100FFFFB9
:104E1000746573745F686D61635F6973686100FFD7
:104E2000746573745F70626B6466325F686D616332
:104E30005F6973686100FFFF66736C5F636C6F632B
:104E40006B2E633A323235203A20675F7874616C9A
:104E5000304672657100FFFF66736C5F636C6F6351
:104E60006B2E633A353937203A206D6367706C6C6E
:104E700030636C6B00FFFFFF66736C5F636C6F6386
:104E80006B2E633A373630203A20636F6E6669675F
:104E900000FFFFFF66736C5F636C6F636B2E633A9A
:104EA00031333830203A20636F6E66696700FFFF48
:104EB00066736C5F636C6F636B2E633A31353439A4
:104EC000203A20636F6E66696700FFFF8002DC0294
:104ED0000005B80580079508000A710B66736C5FC2
:104EE0006C707363692E633A313434203A20696EF2
:104EF0007374616E6365203C2041525241595F5387
:104F0000495A4528735F6C707363694261736573B6
:104F10002900FFFF66736C5F6C707363692E633AE0
:104F2000323135203A20636F6E66696700000000F9
:104F300066736C5F6C707363692E633A323136202E
:104F40003A20636F6E6669672D3E626175645261D7
:104F500074655F42707300FF66736C5F6C7073639F
:104F6000692E633A333431203A20636F6E66696785
:104F700000FFFFFF66736C5F6C707363692E633AAA
:104F8000353231203A206461746100FF66736C5FD2
:104F90006C707363692E633A353336203A2064614E
:104FA000746100FF0000000000B0064000C0064031
:104FB000000000000B0034100C00341066736C5FAE
:104FC000756172742E633A313639203A20696E73F6
:104FD00074616E6365203C20756172744172726108
:104FE00079436F756E7400FF66736C5F75617274E0
:104FF0002E633A323132203A20636F6E6669670061
:1050000066736C5F756172742E633A323133203A85
:1050100020636F6E6669672D3E62617564526174CC
:10502000655F42707300FFFF66736C5F7561727439
:105030002E633A333439203A20636F6E6669670015
:1050400066736C5F756172742E633A353732203A3D
:10505000206461746100FFFF07020000000000008F
:105060000100FFFF010300000000011000127A00A0
:1050700000048000030000002A2A2A20617373655F
:105080007274206661696C6564203A20002A2A2ABD
:10509000205F437379735F616C6C6F632066616935
:1050A0006C65640A0072007700286E756C6C2900CC
:1050B00030580030780030002D002B003031323372
:1050C0003435363738394142434445460030313271
:1050D0003334353637383961626364656600FFFF03
:0850E000008000000000400107
:04000003000000D524
:00000001FF
