:1000000000300020D500000019010000C1090000E7
:1000100000000000000000000000000000000000E0
:100020000000000000000000000000001D010000B2
:1000300000000000000000001F010000490A00004D
:10004000250100002D010000350100003D010000E8
:10005000450100004D010000550100005D01000058
:10006000650100006D010000750100007D010000C8
:10007000850100008D010000950100009D01000038
:10008000A5010000AD010000B5010000BD010000A8
:10009000C5010000CD010000D5010000DD01000018
:1000A000E5010000ED010000F5010000FD01000088
:1000B000050200000D020000150200001D020000F4
:1000C0009836000080F0FF1F0800000088F0FF1F36
:1000D0006414000010B572B601F078F80B4C0C4BAC
:1000E0009C4206D30B4B9C420AD362B602F0A2FCA0
:1000F000FEE7A2686168206800F094F80C34EEE72F
:100100006168206800F099F80834EBE7C00000004F
:10011000CC000000D4000000FEE7FEE7FEE7FEE7AB
:10012000FEE7FEE710B5FFF7FCFF10BD10B5FFF7C7
:10013000F8FF10BD10B5FFF7F4FF10BD10B5FFF7C5
:10014000F0FF10BD10B5FFF7ECFF10BD10B5FFF7C5
:10015000E8FF10BD10B5FFF7E4FF10BD10B5FFF7C5
:10016000E0FF10BD10B5FFF7DCFF10BD10B5FFF7C5
:10017000D8FF10BD10B5FFF7D4FF10BD10B5FFF7C5
:10018000D0FF10BD10B500F0CFFE10BD10B500F0CF
:100190008BFF10BD10B500F095FF10BD10B5FFF737
:1001A000C0FF10BD10B5FFF7BCFF10BD10B5FFF7C5
:1001B000B8FF10BD10B5FFF7B4FF10BD10B5FFF7C5
:1001C000B0FF10BD10B5FFF7ACFF10BD10B5FFF7C5
:1001D000A8FF10BD10B5FFF7A4FF10BD10B5FFF7C5
:1001E000A0FF10BD10B5FFF79CFF10BD10B5FFF7C5
:1001F00098FF10BD10B5FFF794FF10BD10B5FFF7C5
:1002000090FF10BD10B5FFF78CFF10BD10B5FFF7C4
:1002100088FF10BD10B5FFF784FF10BD10B5FFF7C4
:1002200080FF10BD002330B55D181C18934200D329
:1002300030BD246804332C60F6E7002310B51C00A1
:100240001A188B4200D310BD14600433F8E7FFFF87
:10025000FFFFFFFFFFFFFFFFFFFFFFFFFFFFFFFFAE
:10026000FFFFFFFFFFFFFFFFFFFFFFFFFFFFFFFF9E
:10027000FFFFFFFFFFFFFFFFFFFFFFFFFFFFFFFF8E
:10028000FFFFFFFFFFFFFFFFFFFFFFFFFFFFFFFF7E
:10029000FFFFFFFFFFFFFFFFFFFFFFFFFFFFFFFF6E
:1002A000FFFFFFFFFFFFFFFFFFFFFFFFFFFFFFFF5E
:1002B000FFFFFFFFFFFFFFFFFFFFFFFFFFFFFFFF4E
:1002C000FFFFFFFFFFFFFFFFFFFFFFFFFFFFFFFF3E
:1002D000FFFFFFFFFFFFFFFFFFFFFFFFFFFFFFFF2E
:1002E000FFFFFFFFFFFFFFFFFFFFFFFFFFFFFFFF1E
:1002F000FFFFFFFFFFFFFFFFFFFFFFFFFFFFFFFF0E
:10030000FFFFFFFFFFFFFFFFFFFFFFFFFFFFFFFFFD
:10031000FFFFFFFFFFFFFFFFFFFFFFFFFFFFFFFFED
:10032000FFFFFFFFFFFFFFFFFFFFFFFFFFFFFFFFDD
:10033000FFFFFFFFFFFFFFFFFFFFFFFFFFFFFFFFCD
:10034000FFFFFFFFFFFFFFFFFFFFFFFFFFFFFFFFBD
:10035000FFFFFFFFFFFFFFFFFFFFFFFFFFFFFFFFAD
:10036000FFFFFFFFFFFFFFFFFFFFFFFFFFFFFFFF9D
:10037000FFFFFFFFFFFFFFFFFFFFFFFFFFFFFFFF8D
:10038000FFFFFFFFFFFFFFFFFFFFFFFFFFFFFFFF7D
:10039000FFFFFFFFFFFFFFFFFFFFFFFFFFFFFFFF6D
:1003A000FFFFFFFFFFFFFFFFFFFFFFFFFFFFFFFF5D
:1003B000FFFFFFFFFFFFFFFFFFFFFFFFFFFFFFFF4D
:1003C000FFFFFFFFFFFFFFFFFFFFFFFFFFFFFFFF3D
:1003D000FFFFFFFFFFFFFFFFFFFFFFFFFFFFFFFF2D
:1003E000FFFFFFFFFFFFFFFFFFFFFFFFFFFFFFFF1D
:1003F000FFFFFFFFFFFFFFFFFFFFFFFFFFFFFFFF0D
:10040000FFFFFFFFFFFFFFFFFFFFFFFFFEFFFFFFFD
:10041000F7B5214C1D0027780E000123002F1FD1B6
:100420002270032A1ED0062A02D00333012A17D1D4
:100430006060684602F0E3FA2A0069466068009648
:1004400000F090FD08226368D9780A43DA7004222C
:10045000D9780A43DA70114BA360114BE360002393
:100460001800FEBD6060684602F0B7FA2A006946CF
:100470006068009600F05CFC08226368D9780A4343
:10048000DA700422D9780A43DA70064BA360064B6F
:10049000E3603B00E4E7C04688F0FF1F0B2A000042
:1004A00049100000E7290000B10E000010B5002936
:1004B0000BD00138012808D8054B1878002804D043
:1004C00058689C68A047002010BD01204042FBE70F
:1004D00088F0FF1F0023084A43610260074A8361D6
:1004E0004260074AC3658260064A0366C260064AE4
:1004F000436602617047C0460123456789ABCDEF73
:10050000FEDCBA9876543210F0E1D2C3F0B51E4C3E
:100510003022A5441D4986A802F04BFA1C4F302614
:10052000380001F0FDFD1B4C0490200001F0F8FDA7
:10053000059000F091FA802306AD5B01220038009F
:10054000049900930295059B019600F0B3F800F022
:100550008DFA3200070086A9280002F01CFA002854
:100560000DD00A21380002F097FA802203000A49D0
:100570000A48520101F070FD094B9D44F0BD094845
:1005800001F06AFDF8E7C046E4FBFFFF382D0000EC
:10059000992D0000A12D00004F2E0000AB2D000072
:1005A0001C040000CC2D000010B502F03FFA02F050
:1005B00038FA02F03AFA00F093FD00F017FA10480A
:1005C00001F04AFD00F0D6F8040000F059F90440AB
:1005D000E4B200F0A3F9002C01D0002806D10948AC
:1005E00001F03AFD0120404201F084FD064801F08F
:1005F00033FD064801F030FDFFF788FF002010BDF5
:10060000E42D0000002E0000222E0000362E0000F7
:10061000F0B5244F9DB0019205000A000C000100C6
:1006200038001E0002F00CFA40239C4237D93900F2
:1006300002A802F012F902A8FFF74CFF02A840221C
:10064000194902F076F93200019902A802F071F915
:10065000164C02A8210002F000F902A8FFF73AFFA9
:1006600002A84022124902F064F91422210002A8D3
:1006700002F05FF9229902A802F0EFF81DB0F0BD78
:1006800000229C4200D9EA5C3620504084466146F4
:100690000548FA5419545C214A4005495A54013B13
:1006A000EED2C8E758FCFF1F18FCFF1F04FCFF1F19
:1006B00098FCFF1FF0B587B0039004910D981421AA
:1006C0001D00059202F0E8F9441C2300013C06D20B
:1006D000254B0D9A511E0D9140D207B0F0BD14214B
:1006E0006143214A8A1800210292204A8D422CD16E
:1006F0001BBA18045119000E53551D4E48701802AC
:10070000000E1B0E8870CB7003982B1D0499009669
:10071000FFF77EFF1423013B1CD201260C9BB34242
:10072000D3DD134F14233A00049903980097FFF781
:100730006FFF0023029AF95CD25C4A400299CA54C6
:100740000133142BF6D10136E8E70598405C50548C
:100750000131CBE7F25C0299CA54DCE70D9A0E999D
:100760009A5C0D980A54B4E704F2FF1FD8FCFF1FEF
:10077000D8040020F0B5B1B00EA90A003C4B1426F5
:1007800031CB31C231CB31C211CB11C200240D00AB
:10079000029101942F68380001F0C2FC32006968B0
:1007A000039004A802F005F916A8FFF793FE039A38
:1007B000390016A802F0BDF809A916A802F04DF8F4
:1007C000320004A909A802F0E6F82200294900280D
:1007D0003AD0294801F040FC019B013301930134D8
:1007E0000835042CD6D1029B1D68280001F098FC26
:1007F000029B0700142204A8596802F0DAF816A830
:10080000FFF768FE002F23DC09A916A802F025F8DF
:10081000142204A909A802F0BEF8220015490028F4
:1008200022D0154801F018FC019B01330193029B73
:10083000013408330293082CD5D10198083843427B
:100840005841C0B231B0F0BD0C4801F005FCC6E71C
:100850003E000A2F00DD0A262900320016A802F009
:1008600068F8BF1BAD19CDE7044801F0F5FBDEE7E2
:10087000E82B000033360000E2350000F8350000B8
:10088000F0B59BB011AC2200204B1426203323CBB3
:1008900023C223CB23C223CB23C200250295276882
:1008A000380001F03DFC636804901800039301F0E8
:1008B00037FC3200A168059007A802F07AF80CAB6B
:1008C0003800039A04990093059BFFF7A1FE3200BC
:1008D00007A90CA802F05FF82A000D49002810D0E3
:1008E0000C4801F0B9FB029B0133029301350C3433
:1008F000032DD4D10298033843425841C0B21BB0F3
:10090000F0BD054801F0A8FBF0E7C046E82B000069
:1009100024360000E2350000F8350000F0B500256F
:10092000214CDC22A544214909A802F089F809AC30
:1009300004952768380001F0F3FB636806901800FF
:10094000059301F0EDFBE66821693200079040A8AD
:1009500002F02FF8C0AB02930196A3683800059A05
:1009600006990093079BFFF7A5FE320040A9C0A897
:1009700002F011F82A000E49002811D00D4801F0AC
:100980006BFB049B01330493013514340B2DD0D140
:1009900004980B3843425841C0B2074B9D44F0BD08
:1009A000064801F059FBEFE7FCFAFFFF2C2C000092
:1009B0000E360000E235000004050000F8350000A6
:1009C00004207146084202D0EFF3098001E0EFF302
:1009D000088081690A88044B9A4200D0FEE7023100
:1009E0008161202101607047ABBE00009622C021CA
:1009F000104B114852005A60026A09061202120A8C
:100A00000A4302628021C0200C4A090640001150AE
:100A1000116000229A6019687D38FF38814319609F
:100A20000321186801431960054B1A60054B1A60D1
:100A30007047C04610E000E000ED00E000E100E09B
:100A400098F0FF1F9CF0FF1F024A136801331360E8
:100A50007047C04698F0FF1F024B1A68024B1A609D
:100A60007047C04698F0FF1F9CF0FF1F024B1868AC
:100A7000024B1B68C01A704798F0FF1F9CF0FF1FC5
:100A800010B50F4A9379DB0617D40E4B186800286F
:100A90000CD0137852789B065B0F9206D840920FC9
:100AA00004D0062B03D0072B05D0400910BD14211C
:100AB00001F0F2FFFAE70C21FAE7034B1868F5E7BB
:100AC00000400640A0F0FF1F80F0FF1F30B58025DA
:100AD0000C4A41680C4B0D4CD15003786D021B043D
:100AE00011592B400A4D29400B4313514378C02024
:100AF0009B04000311680340064801400B43136048
:100B000030BDC046007004404410000004100000D6
:100B1000FFFFFEFFFFFFF3FF10B50C4C63789B0750
:100B200001D5002010BDA3799B06FAD4FFF7A8FFDA
:100B30000028F6D0E378E1785B069B0FC9095B00DB
:100B4000034A5B185B009B5A5843EBE700400640A2
:100B5000282D000070B50A4C4023A27910001840DF
:100B60001A420BD01F252179064B29401868013104
:100B700001F092FF63792B401833584370BDC04693
:100B800000400640A0F0FF1F064A074B10B5D3589F
:100B9000DB0302D4FFF7C0FF10BDFFF7DBFF400807
:100BA000FAE7C046007004400410000070B51B4B0B
:100BB0009C799E791D7A24072D07A40FF6B26D0F3C
:100BC000954215D0F5070BD5012C02D01D78AD0745
:100BD00006D501265D78B5435D709D793542FCD11F
:100BE0000E261D7A520032402136B5432A431A722E
:100BF00001255A78AA430D402A4303255A701A78D2
:100C0000AA4302431A70012C01D0820704D50120A7
:100C10009A7902408A42FBD1002070BD0040064014
:100C200010B51F244278094B22401A7159798278F5
:100C3000A14322400A435A7101781A790A4340219C
:100C40000A431A719A790A42FCD010BD004006404E
:100C500002681549002330B58A4204D9134B9342E8
:100C60009B415B4201330F2411493C250A781B014B
:100C7000A243047922435F240A700A7822408479CF
:100C800022430C4C0A7062784079AA430243134312
:100C90006370002807D00B785BB2002B03DA0223C5
:100CA000A2791A42FCD030BD9798000000127A0059
:100CB00000500640004006400222080010B5114CCA
:100CC000637893436370237839321340453213437A
:100CD0002370643AA3791340082BFBD14022637937
:100CE000934363712023A2791A42FCD1FFF798FF46
:100CF00040236279134363712023A2791A42FCD006
:100D0000002010BD00400640080010B51100FFF79C
:100D1000D3FF3F21054A13780B4013703C39937978
:100D20009B080B40032BFAD1002010BD0040064069
:100D3000F0B50E6889B0B300059304230093002337
:100D400004000F00069204960393029305990698F7
:100D500001F0A2FE80B2051C002800D101250099F7
:100D6000ADB26943069801F097FE0099831B019389
:100D70006B1C59430698079301F08EFE019B301AB5
:100D8000984202D26B469D8B0190019B049A93423C
:100D900003D80493009B02950393009B01330093B7
:100DA000059B9B190593009B212BCFD1642130001B
:100DB00001F072FE03234343049A934248D38023F5
:100DC000244ADB0011680B4313600C22E378934341
:100DD000E370039B043B032B03D80223E27A134303
:100DE000E3721F22A37A0399934301390B43DBB2C9
:100DF000A372A37A93431A00029B1B0A1343DBB22C
:100E000023706B4613221B7A6370A37893433A795D
:100E1000002A02D01343102213432021A37022780A
:100E20008A4322707B7922785B010B401343237045
:100E3000E378BA79DBB2002A01D008221343FA79A9
:100E4000002A01D0042213430020E37009B0F0BD52
:100E50000148FBE734800440B504000082B06B46D3
:100E6000DA1D0023137013780133DBB213700B0407
:100E700003D5802343710B4B19404B0403D540230A
:100E80004371094B19401F230A001A40194202D02E
:100E9000D2B2027199434B1E99414842034908401E
:100EA00002B07047FF7FFFFFFFBFFFFFB4040000E9
:100EB000F8B504230C0008279C468A1894422AD0CF
:100EC000202602250379334203D0C37923700134ED
:100ED000F4E7017943791B020B433B4205D008211B
:100EE000FFF7BCFF9720C000F8BD61460B4204D05D
:100EF0000421FFF7B3FF0948F6E72B4204D0022193
:100F0000FFF7ACFF0648EFE701210B42DAD0FFF70D
:100F1000A5FF0448E8E70020E6E7C046B904000062
:100F2000BA040000BB04000010B5034B034A1B6861
:100F300011680348984710BDA8F0FF1FA4F0FF1FD9
:100F400000A00640031E08D0044A0120934204D0AA
:100F5000034A9818431E98410230704700B006407B
:100F60000040F9BFF7B50B6804000D00100019012F
:100F70001600009301F090FD80B2071C002800D1FC
:100F80000127BFB23901300001F086FD009B390115
:100F9000C31A10313000019301F07EFD009B181A36
:100FA000019B984202D20137BFB2019064210098A0
:100FB00001F072FD03234343019A93423CD3200086
:100FC000FFF7C0FF1D4B8000C1581D4B0A0CD21803
:100FD000012389B28B401068034313600C22E3782D
:100FE0009343E3702378133293431A003B0A13436D
:100FF00013222370FBB26370A37893432A79002AEB
:1010000002D01343102213432021A3706B7922785E
:101010005B018A430B4013432370E378AA79DBB268
:10102000002A01D008221343EA79002A01D00422C1
:1010300013430020E370FEBD0248FCE7082D0000CA
:1010400000700440F5030000F0B5082604278A1854
:10105000914217D020250EE003799C4664464379DF
:101060001B02234333420FD13B420FD102242342C0
:101070000ED1DB070ED403792B42EDD0C3790B7070
:101080000131E5E70020F0BD0448FCE70448FAE739
:101090000448F8E7FD208000F5E7C046F1030000B2
:1010A000F2030000F303000010B5034B034A1B6872
:1010B00051680348984710BDB8F0FF1FACF0FF1F00
:1010C00000B0064010B5034B034A1B689168034803
:1010D000984710BDB8F0FF1FACF0FF1F00C00640DE
:1010E00009490A480A4A435810B51A408023DB04CC
:1010F00013434350FFF748FDE12103000322054855
:101100004902FFF785F910BD04100000007004408B
:10111000FFFFFFF300A00640104A114B114910B524
:101120001148D150FFF794FD3821104B104A1A6036
:10113000104A13788B43002113700F4A08000732BE
:10114000FFF7E2FD002202201100FFF72FFD0B4800
:10115000FFF7BCFC0A4B0B4A1A6010BD007004403C
:101160004410000000000310142D0000A0F0FF1F29
:1011700000127A00004006403D3600001C2D0000A1
:1011800084F0FF1F006CDC0280230B499B000A687F
:101190000A481A430A600A494A6802401A434A60E8
:1011A0008A680240072013438B60064A06498B5821
:1011B00083438B507047C04638800440FFF8FFFFE0
:1011C00000900440101000000070044088230021AB
:1011D000014A5B01D15070470070044037B5184C8C
:1011E00018492200002001F08FF8802380225B0044
:1011F00000212000D20000F057FF134C134D2200B5
:101200002900012001F080F8802380225B0000216A
:101210002000D20000F048FF0D4B1B680193022B09
:101220000DDD0C4C29002200022001F06DF8802316
:101230008022002120005B00D20000F035FF37BD86
:1012400050F1FF1F9F2D00008CF1FF1F473600005B
:10125000242D0000C8F1FF1FF8B5802703250D4B92
:101260000D4C1E68BF03AE420BDC0C4801F060F968
:101270000B4801F05DF9022E02DD0A4801F058F931
:10128000F8BDE3683B4202D0200001F051F901357E
:101290003C34E8E7242D000004F2FF1F50F1FF1F4B
:1012A0008CF1FF1FC8F1FF1FF0B5CFB00A92559A1D
:1012B0000400089200220B93549B069218785A1C43
:1012C0000792002802D106984FB0F0BD252839D1E9
:1012D00004228021002502279446079B2438890098
:1012E0001A00167801332B2E4FD046D8202E4ED020
:1012F000232E4FD02A2E4FD1089980C9002F02DA11
:1013000001207F42454002321E7807920891FB433C
:10131000DB173B40149300230C932E2E57D1079BD1
:101320001E782A2E45D00A2101333200303AD0B23D
:101330000793092846D80C981E78484312180C9237
:101340000133F2E7069B0B9A5D1CDB179A4204DC23
:101350000CD10A9B069A934208D9A368013BA3606B
:10136000002B06DB23685A1C22601870079B069529
:10137000A4E7210000F020FFF8E72D2E03D0302E47
:10138000B8D10D43ACE70543AAE73D43A8E7624661
:101390001543A5E70822FBE700270A203200303A70
:1013A000D1B207930929B2D847431E78D719013320
:1013B000F4E7089B04CB0C92079A08931300567825
:1013C000023307930C9B002B18DB10231D436C2E5C
:1013D00009D1079B1E786C2E13D15E7860231D43C4
:1013E000079B023307934C2E01D0712E0FD1079B20
:1013F0001E7860231D43079B013314E000230C93E8
:10140000E5E7079B0133079320231D43EBE7682E95
:1014100070D1079B1E78682E07D180235B001D4387
:10142000079B5E780233079304E0079B0133079321
:1014300080231D43782E09DC572E67DC412E00D116
:10144000FDE200DD89E0002E00D1EDE0149B0122D9
:10145000013B0C932B0013403993069B15421DD181
:1014600030233893AB0501D420233893069B0C9D81
:101470002293DB172393013D00D48EE000239F428B
:1014800000DD0C9B069A9B18149A911E002297422D
:1014900002DD14980132121A52180C920B995A1C40
:1014A0000692DA17914203DC0CD10A9A9A4209D9C2
:1014B000A368013BA360002B00DA8FE023685A1C6D
:1014C00022601E70399B089F002B10D0069B0C9D3C
:1014D0002093DB172193013D00D484E00C9B0C9AF0
:1014E000DB43DB171340069AD3180693089F069D2B
:1014F00008973BE76A2E04D140231D43079B1E78C3
:101500007AE77A2EFAD0742E94D1F7E73000583863
:1015100020289BD801F03CFB66019AFF9AFF9AFFB6
:101520009AFF9AFF9AFF9AFF9AFF93029AFF3D0053
:1015300059022700270027009AFF59029AFF9AFFB5
:101540009AFF9AFF8C00C801BE019AFF9AFFAC0077
:101550009AFFF0019AFF9AFF9501022332009A4305
:10156000452A00D072E78023DB002B43EA0601D432
:1015700006220C921D0000220023072104920593ED
:101580000023089F389307378F4303CF449045913A
:1015900088E1089B40CB089358E70B9B239A934222
:1015A00004DC0DD10A9B229A934209D9A368013B1E
:1015B000A360002B0DDB23685A1C2260389A1A7036
:1015C0000120229A239B002112184B41229223933F
:1015D00051E72100389800F0EFFDF1E721003000DD
:1015E00000F0EAFD6EE70B9B219A934204DC0DD1DB
:1015F0000A9B209A934209D9A368013BA360002B60
:101600000DDB23685A1C226020221A700120209AC8
:10161000219B002112184B41209221935BE721006E
:10162000202000F0C9FDF1E7079B013B07935DE730
:10163000089B1F1D6B0606D5089B069A1B681A603F
:10164000D2175A6053E7AB0604D5089B069A1B686D
:101650001A604CE7EB0504D5089B069A1B681A70C4
:1016600045E72B06F1D5089B069A1B681A803EE7D2
:10167000089F08CF3893002B01D1C64B3893389878
:1016800000F04EFD0600EB0603D50C9B984200DDF2
:101690001E00149B2A009B1B089301231A401492DE
:1016A0001D4218D12F330C93AB0501D420230C938A
:1016B000069B089D1E93DB171F93013D2CD5089BAD
:1016C000089ADB43DB171340069AD2180692089A51
:1016D000013AD31A08930025069B2493DB17259320
:1016E000B5423ADBF043069BC01706409B190693B0
:1016F000149B002B00D1FAE6069B089D2893DB176C
:101700002993013D4DD5089B089ADB43DB17134015
:10171000069AD3180693EAE60B9B1F9A934204DCC1
:101720000DD10A9B1E9A934209D9A368013BA3607D
:10173000002B0DDB23685A1C22600C9A1A700120C2
:101740001E9A1F9B002112184B411E921F93B4E753
:1017500021000C9800F030FDF1E70B9B259A934295
:1017600004DC0ED10A9B249A93420AD9A368013B58
:10177000A360002B0FDB23685A1C2260389A525D4D
:101780001A700120249A259B002112184B41013523
:1017900024922593A4E7389B2100585D00F00CFDAE
:1017A000EFE70B9B299A934204DC0DD10A9B289A00
:1017B000934209D9A368013BA360002B0DDB23688A
:1017C0005A1C226020221A700120289A299B00218D
:1017D00012184B412892299393E72100202000F012
:1017E000EBFCF1E740232A00089F1A401D421DD060
:1017F0000722073797430CCF0492059380232A00D2
:101800001A401D4216D06B461B8A04930023059391
:10181000614B9C462B0701D4604B9C46604B389330
:10182000EB0600D48AE05F490D4087E008CF0592BF
:101830000493E3E7EB05EBD56B461B7C0592049321
:10184000E6E740232A00089F1A401D4217D00722CE
:10185000073797430CCF0492059380232A001A4040
:101860001D4210D06B461B8A0493002305934E4BF8
:101870009C462B0701D4494B9C464C4BCFE708CFE5
:1018800005920493E9E7EB05F1D56B461B7C0592C5
:101890000493ECE7089F08CF049300230593434B80
:1018A0003893414B9C4649E040232A00089F1A4048
:1018B0001D4216D00722073797430CCF0492059399
:1018C00080232A001A401D420FD06B461B8A0493C6
:1018D00000230593364B9C462B0700D5ADE02F4BDC
:1018E0008FE008CF05920493EAE7EB05F2D56B464B
:1018F0001B7C05920493EDE740232A00089F1A40C1
:101900001D4257D00722073797430CCF0492059307
:1019100080232A001A401D4250D06B461B8A049334
:101920000023059310212B001C480B40844638935C
:101930000D4203D01B4B1D4000233893069B0A9891
:101940000B993E93DB173F933E9A3F9B801A994138
:1019500001220C9B524240936346089009914292A7
:10196000439255200022419346A950540132202A27
:10197000FBD18222D200154201D1012240926E2E6B
:1019800065DC472E00DD92E0402E00DD83E0002381
:101990000C9392E04936000050360000352E0000CE
:1019A0005C360000FFFDFFFF533600006D3600007F
:1019B000DE34000008CF05920493A9E7EB05B1D50A
:1019C0006B461B7C05920493ACE7089F6B061AD507
:1019D0000722073797430CCF0E920F932B0617D58C
:1019E0006B4638229B5E0E93DB170F930F9B002BE9
:1019F00016DA0E980F99002342428B410492059308
:101A0000C54B9C4619E008CF0E93DB170F93E5E713
:101A1000EB05EBD56B4638229B181B785BB2E2E7EF
:101A20000E9A0F9B04920593BC4B9C46AB0704D4C3
:101A3000BB4B9C466B0700D451E70023EFE6102315
:101A40001D4200D08FE51D43033B0C938BE5300016
:101A50006F3809289BD801F09BF8CC00B2009AFFA0
:101A60009AFF9AFF9AFF47019AFF9AFFB20001F08E
:101A70008FF8A6008EFF8EFF8EFF8EFF8EFF8EFFEB
:101A80008EFF8EFF3D018EFF8EFF3B013D013D012C
:101A90003D018EFF3B0132000123413A9340512228
:101AA00018001040134200D020E10C9005E03000F7
:101AB000002358380C931128D9D980232A00DB0041
:101AC0001A403A921D4200D11FE100234093429BED
:101AD000002B01DD013B4093439B002B03DD409A2B
:101AE000013BD31840930C9B409A41989E1800F0FC
:101AF00017FB149B9E1B331A389301232B403B93F7
:101B0000884B1D4200D13CE100231293DB17139355
:101B1000419B129E5A1C41921B781493002B00D0BB
:101B200032E13B9B002B15D130333993AB0501D407
:101B300020233993F317389D1A961B93013D00D447
:101B400043E1389B38995A1EDB43DB170B40D21A0E
:101B50003892F6183A9B002B00D08FE1F3171096BD
:101B60001193409B109E013B4093002B00DBD7E17B
:101B7000F3171D930C9B1C965D1E002B00DDF0E1FE
:101B80000C9BD843C017184086197BE10F23049E95
:101B90001E40389B9E5D059B56541B079C46049B2C
:101BA00001321B091800059B1E0963460343049379
:101BB0000596049E059B0C921E43E7D17DE700220B
:101BC00046A9F6E7072104980840059930304907EF
:101BD0008C4604999854CE0805990133C80861468B
:101BE000314304910590049805990C930843E9D179
:101BF00063E7002346AAF6E7059B049ADB07520831
:101C00001A43059B32925B083393049A059B920812
:101C10009B071A43059B34929B083593349835995A
:101C2000329A339B12184B411907100908431909BE
:101C30002C902D912C982D9912184B411906100AB1
:101C40000843190A2E902F912E982F9912184B4164
:101C50001904100C0843190C3090319130983199C7
:101C600012184B4100213C933D913C983D9912182C
:101C70004B415907D00808432A9000210620DB0871
:101C80002B93049A059B12184B412A982B990C927E
:101C90000D930A22002300F039FF0C9A0D9B121AB3
:101CA0008B411000190002091B071A430B093692D9
:101CB0003793369837992A9A2B9B801859410A22D4
:101CC0004243049B0490059130339B1A9C46282381
:101CD0003CAAD218634693550136049B059A0C968C
:101CE000134300D088E7E8E60026F6E743AB03930A
:101CF00042AB029340AB019341AB009330002B0009
:101D0000569E46AA44A9B047CFE6409B0C9A9B1A20
:101D100000D4E7E63A9BE5E6563600005A36000066
:101D20005836000001020000099B159A934204DC1A
:101D30000DD1089B149A934209D9A368013BA36073
:101D4000002B19DB23685A1C226020221A70012004
:101D5000149A159B002112184B4114921593389B2D
:101D60005A1E149BD31ADFD5389B3899DB43DB17F7
:101D70000B40D21A3892C8E62100202000F01CFA4D
:101D8000E5E700220023E8E7099B139A934204DC6D
:101D90000DD1089B129A934209D9A368013BA36015
:101DA000002B0DDB23685A1C2260149A1A70012044
:101DB000129A139B002112184B4112921393A7E61B
:101DC0002100149800F0F8F9F1E7099B1B9A93425F
:101DD00004DC0DD1089B1A9A934209D9A368013BF0
:101DE000A360002B0DDB23685A1C2260399A1A70FD
:101DF00001201A9A1B9B002112184B411A921B9327
:101E00009CE62100399800F0D7F9F1E7149A46AB27
:101E1000D05CF3173C2825D03E286BD1169617933B
:101E2000439B169D013B4393002B23DB099B179A91
:101E3000934204DC0DD1089B169A934209D9A368FA
:101E4000013BA360002B50DB23685A1C2260302228
:101E50001A700120169A179B002112184B411692F6
:101E60001793DDE718961993429B189D013B429307
:101E7000002B19DA2E00149B013314930C9B149A37
:101E80009342C3DC3B9B002B0BD0F317389D269667
:101E90002793013D00D486E0389BD843C0171840F3
:101EA0003618069B9B1935E4099B199A934204DC6A
:101EB0000DD1089B189A934209D9A368013BA360EE
:101EC000002B0DDB23685A1C226030221A7001207F
:101ED000189A199B002112184B4118921993C3E7C5
:101EE0002100302000F068F9F1E72100302000F0F7
:101EF00063F9AEE7099A751C934203DBBAD1089BDC
:101F0000B342B7D9A368013BA360002B04DB23686D
:101F10005A1C22601870ADE7210000F04DF9A9E7C6
:101F2000099B119A934204DC0DD1089B109A9342AD
:101F300009D9A368013BA360002B0DDB23685A1C61
:101F4000226030221A700120109A119B0021121871
:101F50004B411092119304E62100302000F02CF93F
:101F6000F1E7099B1D9A934204DC0ED1089B1C9A51
:101F700093420AD9A36846AA013B505DA360002B97
:101F80000DDB23685A1C2260187001201C9A1D9BCF
:101F9000002112184B411C921D932B00ECE52100EF
:101FA00000F00AF9F1E7099B279A934204DC0DD16E
:101FB000089B269A934209D9A368013BA360002B92
:101FC0000DDB23685A1C226020221A700120269AF9
:101FD000279B002112184B412692279359E7210095
:101FE000202000F0E9F8F1E7F0B507000C0015003B
:101FF0001E0097B0002803D1002926D1013406AF76
:102000003C22002107A800F01FFD0A23621E0024C5
:102010000A930F4B009509930E4B0196029307A864
:1020200023000797FFF740F9099B05000593013B43
:102030000993A34204DB079B1C70280017B0F0BD76
:10204000200007A900F0B8F8F7E701256D42F4E792
:10205000FFFFFF7F512A00000FB473B506AB40CBE2
:102060000121320068460193FFF7BEFF041E14DD14
:10207000451C280000F0E6F9009000280DD0320041
:102080002900019BFFF7B0FF064B22000099186D55
:10209000FEF70CFA009800F0DDFC200076BC08BCCE
:1020A00004B0184750F1FF1FF0B5C56804000120C7
:1020B000AE070CD080208000824213D08020C00068
:1020C000824205D08020400082420BD0FF38F0BD14
:1020D0002100012324312A43002021612160E36192
:1020E000E260F4E7024F5E1E0120BE42F3D9EEE744
:1020F000FEFFFF0010B5084A1368002B04D1FFF75C
:10210000ABF800F053FB10BD013B1360034A9B008A
:102110009B589847EFE7C04640F1FF1FBCF0FF1FF8
:10212000032310B5411C0200184217D1104C13684C
:10213000104818189843204217D0DCB2501C002CCD
:1021400011D0FF242402901C23420CD0FF20000455
:102150000340581E8341D318D81C04E00130421EAE
:102160001278002ADFD1401A10BD0432DFE7C046E2
:1021700080808080FFFEFEFE2023C26810B59A4357
:10218000C2608369826A040093420CD000F0F6F8C2
:10219000E368074A1A4010231343E360A36AA3616C
:1021A0002369E3622360E268024B1340E36010BDE1
:1021B000EFCFFFFFBFBFFFFFF8B5CA684F4B050069
:1021C00013400C00CB60930602D50800FFF7D4FF44
:1021D000A268E668531C0FDAB3050DD402235B42F4
:1021E0009B1AA36090235B021E432368E6605A1C7F
:1021F00022601D70E8B20AE0414A3240022A07D04C
:102200000023A36080331E43E66001204042F8BDF6
:1022100080213C4B090233408B420AD1002120002F
:1022200000F0D6F9E3689B0602D52000FFF7A4FF73
:10223000E6689023F0225B0233431201E36016420A
:1022400010D1606900F0B8FC002821D073051FD5BB
:1022500023002433236123600123E36192235B0283
:102260003343E36090210901226826690B4225D09F
:10227000E36A9A4200D91300991BB34217D1731C29
:10228000E3622360E3695A1EA26023633570B1E7FD
:1022900080277F00380000F03BF99423E2685B025E
:1022A00033431A4320612060E761E260DAE72200ED
:1022B000300000F093F80028E1D0A6E7511CE8B206
:1022C00021601070E26A21688A4200D91100E26937
:1022D000891B22635B0504D40A2802D08A4200DDF0
:1022E00088E7002322003000E6622660A36000F049
:1022F00075F8002800D088E77CE7C046FFFFF7FFAD
:102300008A10000010A00000F7B50D000190100029
:10231000140000F00DF92B78722B1CD0772B1DD0F8
:10232000612B26D1144A593B0220691C032784469D
:102330000426012508782B2813D0622816D0E260E5
:10234000019A62611B0704D502220021200000F0DF
:102350003FF92000FEBD00230122E5E7042302220D
:10236000E2E760463A4303430131E3E732432B435C
:10237000FAE70024EDE7C04602800000C368154A72
:1023800070B51A40C2608222040005690168C66AFD
:102390001A40022A02D00120404270BD802218005B
:1023A000520210401342F8D0B14200D231008D42A7
:1023B00008D10020E268084BE56213402560A06068
:1023C000E360EAE722002800491B00F007F8002834
:1023D000EFD0E0E7FFFFF7FFFFFFFEFFF7B5D5689F
:1023E0000F00140056690190EB0205D51023300050
:1023F0001D4300F0DBFBA061104B1D420FD03000ED
:10240000A16900F0E5FB002806DA80230120E268DC
:1024100040421343E3600FE0094B1D40E560019922
:102420003A003000FEF742F84100A3694908791AE2
:102430005918A1610028E8D1FEBDC0461000020075
:10244000EFFFFDFFF7B50027304BC21C1C68950855
:10245000B84217D02B000A3380210193EB1C9C4615
:102460004905002C10D10C3000F04EF9431C09D066
:1024700080239B05036045608460002F44D1234B7B
:1024800018601AE00020FEBD23688B4239D1A7688E
:102490006368002F09D03E688E4206D17E68033300
:1024A000F3186360BB68A360F1E7AB4207DB6345E9
:1024B00005DC80239B05236020000C30E3E7019EB0
:1024C000B34211D9802189052160032120008A436C
:1024D00080210C305B1B82184905033B6560A260BC
:1024E000116053609760CEE7002F0AD19B00C01A9D
:1024F00000F00AF9431CC5D080239B05236065606A
:10250000DAE72700A468ACE7B860D6E748F1FF1F18
:1025100010B5FFF797FF041E05D117220349FDF7F9
:10252000C5FF00F043F9200010BDC0467E36000014
:10253000F0B5C568040089B0AB0722D02B0718D4CA
:102540004769066900F022F8380000F029FB2B05E6
:1025500002D5300000F07EFA0B4BAD0DAD059D426B
:1025600007D120226846216A00F038FB684600F057
:1025700087FA3C220021200000F066FA002009B012
:10258000F0BD01204042FAE7000080AD73B500289D
:1025900013D000F0DBF80500280076BD3000604362
:1025A000094BC01800F0D2F8002801D001256D4277
:1025B0000134019BA342F1DCEEE7044B04001B68ED
:1025C00005003C260193F4E750F1FF1F242D000085
:1025D000F7B5394BC66804000D0000921E4202D1C7
:1025E00002273800FEBD43691800019300F0E4FAA9
:1025F000071EF5D1009B012B05D0022B2CD0002B00
:1026000005D00237EDE7200000F05AF82D18002D14
:10261000E6DBB30404D52368E26A9A4200D2E3629F
:10262000A169A9420EDCE26A2368934200D213003A
:10263000226958180092801AA84203DB206B0A18FE
:10264000AA4228DC20231E430023A562A360636006
:102650001A4B1E40E660C4E7019800F0A7FAE26852
:10266000002804DA802313430127E360B9E7E16A15
:102670002368994200D90B00A1695B1821695B1A94
:10268000920603D5A26A934200DA1300834200DA6D
:102690000300ED18BBE76D1AB20701D5281AA06038
:1026A000F20703D5009A9B1AEB1A6360009B5D1931
:1026B000202325609E43CBE703001000BFCFF7FF28
:1026C000C268930705D1212201200E4B40421A60B7
:1026D00070472023134012030AD5002B02D0806AD2
:1026E0000138F5E70368826900699B18181AF7E753
:1026F000002B01D0806AEBE70368826900699B18B0
:10270000181AE5E74CF1FF1F70B50D4D04002B685A
:10271000002B01D10B4B2B6003232E6803349C4309
:102720003419200000F036F8002802D12C60300067
:1027300070BD0C220126044B76421A60F7E7C046B2
:1027400044F1FF1FEC0400204CF1FF1FC36870B57B
:1027500003221E0004001640134211D09B0611D51F
:10276000856AFFF709FDE268094B20001340E3602A
:10277000FFF704FE0022060029002000FFF728FFD3
:10278000300070BD036882699D180369ED1AEAE79D
:10279000FFCFFFFF03000448002803D0002283423C
:1027A000524110007047C046EC0800201820014933
:1027B000ABBE704726000200F0B5036889B00093F5
:1027C0004368020001938368019F0293C368029DDE
:1027D00003930369039C9C4603005C3306936346A2
:1027E000009E1C3205931178537809061B040B4395
:1027F000D1780B439178043209020B4329006140E0
:10280000394061400493079133001B21CB41079964
:10281000C918049B5B18059905945B1839000227B9
:102820000493069BF9413700934212D1009B049A0E
:1028300064449B180360019B04619E19029B4660DF
:102840005918039B81605D190023C560C36509B0F9
:10285000F0BD2C00049E0D00C5E7F8B5436E0400E2
:102860000D00002B5ED1066E002E25D1C36D070032
:102870005A1CE11880239C46E36D1C37B818E265AA
:10288000372B50DD63460B77403B31009A1A00F03E
:10289000DBF82000FFF790FF3A223100380000F00B
:1028A000D3F8A36920001BBA636563691BBAA365EB
:1028B000FFF782FF012323666268236812BA626011
:1028C000A2681BBA12BAA260E268236012BAE26080
:1028D000226912BA22612B7063786B70A378AB7097
:1028E000E378EB7023792B7163796B71A379AB710A
:1028F000E379EB71237A2B72637A6B72A37AAB72F2
:10290000E37AEB72237B2B73637B6B73A37BAB73D9
:10291000E37BEB73237C2B74637C6B74A37CAB74C1
:10292000E37CEB74F8BD63460B77382331009A1AC9
:10293000B5E7F8B504000D0001278E18B54202D0A6
:10294000636E002B00D0F8BDE36D5A1CE265297858
:10295000E3181977636908336361002B05D1A36914
:102960000133A361002B00D16766402A02D1200009
:10297000FFF722FF0135E1E70300613B052B02D899
:102980005738C0B270470300413B052B01D8373898
:10299000F7E73038F5E7002330B5934201D1012045
:1029A00030BDC55CCC5CA54201D10133F5E7002008
:1029B000F6E7F8B50E0004008718BC4200D1F8BD58
:1029C0003078FFF7D9FF05007078FFF7D5FF2D01AC
:1029D0000543257002360134EFE7E1235B02036013
:1029E0000023436070478A18914200D170470379F1
:1029F0005BB2002BFBDA0B780131C371F4E7E12302
:102A00005B0203600023436070478A18914200D143
:102A1000704703795BB2002BFBDA0B780131C3718D
:102A2000F4E710B5FEF778FB10BD704710B5FEF760
:102A3000ABFB10BD10B5FEF7D1FBFDF7B5FD10BD2A
:102A400010B500F07AF810BD10B500F08CF810BD8C
:102A50000020704710B5002811D080210C3849059E
:102A600001608268002A0AD013688B4207D143684C
:102A7000546803331B19436093688360F1E710BD0A
:102A800010B50400FFF74CFB0100200000F09AF89D
:102A900010BD03000B4321D4002931D00122D207FD
:102AA000030901E0090112099942FBD9430801E039
:102AB000490052089942FBD900E04908401A07D35F
:102AC0005241FAD301461046704749084018F7D2E0
:102AD0009218FAD34018014610467047CB0F00D029
:102AE0004942021000D54042534008B5FFF7D4FFD9
:102AF0000CBC521000D34042002A00D5494218476E
:102B0000F446002000F001F86047704710B54343D9
:102B10005143C918040C130C5C43091992B2040CFC
:102B2000544380B2434350432204240C8018614133
:102B30001A041B0C8018594110BD8446830708D124
:102B40008B0706D1131F04D304C904C0043BFBD276
:102B50001A1D524205D0891A801A8B5C83540132A7
:102B6000FBD1604670478446043A09D3830707D1F6
:102B700009060B0A19430B0C1943043A02C0FCD294
:102B8000043203D001700130013AFBD16046704736
:102B90008C46411E7144095E49008E44614670476F
:102BA00003B469460220ABBE02B0704703B4694665
:102BB0000C20ABBE02B0704703B469460920ABBE1F
:102BC00002B0704703B469460E20ABBE02B0704736
:102BD00003B469460A20ABBE02B070470FB4694621
:102BE0000D20ABBE04B07047652E0000692E0000BA
:102BF000922E0000CB2E0000F42E00001C2F0000AF
:102C0000452F000018300000413000004A3000001D
:102C1000593000008230000087300000A3300000EF
:102C2000CC300000D5300000043100002D31000010
:102C30003631000001000000140000003D310000AA
:102C40002D310000363100000100000015000000A9
:102C5000663100002D310000363100000100000017
:102C600020000000913100002D31000036310000BD
:102C70000100000040000000D23100002D310000B2
:102C80003631000001000000C8000000533200008F
:102C90002D31000036310000020000001400000059
:102CA000E43300002D310000363100000200000046
:102CB000400000000D3400002D31000036310000CE
:102CC00003000000140000008E3400002D310000CD
:102CD000363100006400000014000000B73400002A
:102CE0002D3100003631000064000000400000007B
:102CF000E0340000992D0000A12D000064000000C8
:102D00004000000061350000000000000B0034109E
:102D10000C00341000127A0000048000010300004F
:102D200000000110030000008002DC020005B8056D
:102D300080079508000A710B37353737423546460C
:102D40004230353831393544453339373837373300
:102D500042343732453932443032313638373345F0
:102D600045314132313730313537433230353445F2
:102D700044433431453538443746393439303530B9
:102D80003235334638434531443535453642383699
:102D9000453632414544334600426F756C64657276
:102DA0000042756666616C6F65730025733A202575
:102DB0007520697465726174696F6E7320746F6FCA
:102DC0006B202575206D7365630D0A004641494CE3
:102DD000555245206F6E2074696D6564207465736B
:102DE000740D0A0052756E6E696E672076616C69AB
:102DF000646974792074657374732E2E2E0D0A0025
:102E000054455354204641494C555245532045584A
:102E1000495354202E2E2E2065786974696E670DF3
:102E20000A00416C6C207465737473207061737355
:102E30006564210D0A0052756E6E696E67207469B3
:102E40006D696E6720746573742E2E2E0D0A0074E2
:102E5000696D655F70626B6466325F686D61635F48
:102E6000697368610061626300433330383035371D
:102E700043353638303031464446423941423532A6
:102E8000454241323641384546313038324444308B
:102E9000330061626364626364656364656664658C
:102EA000666765666768666768696768696A6869AA
:102EB0006A6B696A6B6C6A6B6C6D6B6C6D6E6C6D5A
:102EC0006E6F6D6E6F706E6F707100314539323795
:102ED0003642313633363938323236363832323697
:102EE0004441343730373832454345353635463737
:102EF000353739004E6F626F647920696E73706583
:102F000063747320746865207370616D6D69736894
:102F10002072657065746974696F6E003046443163
:102F200031323046443845323545373045424230FB
:102F30003038343639304336343831374239464602
:102F400044314245004E6F7720686973206C696692
:102F5000652069732066756C6C206F6620776F6ED4
:102F60006465722F427574206869732068656172A8
:102F700074207374696C6C206B6E6F777320736F41
:102F80006D6520666561722F4F6620612073696DE3
:102F9000706C65207468696E672C206865206361B9
:102FA0006E6E6F7420636F6D70726568656E642FEE
:102FB00057687920746865792074727920746F205D
:102FC0007465617220746865206D6F756E746169D7
:102FD0006E7320646F776E2F546F206272696E6714
:102FE00020696E206120636F75706C65206D6F7253
:102FF000652F4D6F72652070656F706C652C206D4C
:103000006F72652073636172732075706F6E2074C8
:103010006865206C616E640036313339383333367D
:103020003032433435453333304132464635343817
:1030300036433130424632463242453846414330CB
:1030400000436F6C6F7261646F005468697320692C
:10305000732061207465737400443845323331360F
:10306000384542453043323544374635453532469A
:10307000434434433946444235323131464636437F
:1030800039004A656665007768617420646F20794D
:10309000612077616E7420666F72206E6F7468694C
:1030A0006E3F004437354435393043444442303074
:1030B000323439464533313344413531313230379A
:1030C0003341354642394535363932005246432080
:1030D0003231303400484D41433A204B65796564C4
:1030E0002D48617368696E6720666F72204D657345
:1030F000736167652041757468656E746963617496
:10310000696F6E00413631433041333346323634D5
:103110003632354431323535363634454639363037
:10312000453235343044334538443143007061739F
:1031300073776F7264006D7973616C74003042361E
:1031400044354145433441423031424532304236C4
:1031500042373934354435373042424245374230C0
:1031600042413633390030423644354145433441DB
:1031700042303142453230423642373934354435B7
:103180003730424242453742304241363339313896
:1031900000304236443541454334414230314245A6
:1031A0003230423642373934354435373042424284
:1031B000453742304241363339313845394630316E
:1031C0003834393030343442364330423743313189
:1031D0003700304236443541454334414230314274
:1031E0004532304236423739343544353730424241
:1031F000424537423042413633393138453946301D
:103200003138343930303434423643304237433148
:103210003137313835443346384332343433394525
:1032200037434537314339453133354632383544F4
:1032300041433632323344343444423533414532EB
:1032400043383332383143383844413046424535CB
:1032500042450030423644354145433441423031E5
:1032600042453230423642373934354435373042C0
:10327000424245374230424136333931384539468A
:1032800030313834393030343442364330423743C9
:1032900031313731383544334638433234343339B9
:1032A0004537434537314339453133354632383573
:1032B0004441433632323344343444423533414559
:1032C000324338333238314338384441304642454E
:1032D0003542453146363531363436443633383466
:1032E000313431304432454444354543333443432B
:1032F0004239424235453245323238334330323535
:10330000454332383239333246434335443534420B
:1033100045433637333939304346314242464537E3
:1033200035394430314437414238463842443745D4
:1033300042314143444145353332373839433232E3
:1033400030324430354333423233453345393539F1
:1033500036304245323342303133423436383743E7
:1033600035354636333436394145434538453432B0
:1033700036333535413430423644433545443831AF
:103380004244384633374339443837313937393393
:103390003934383444423242374442384136394174
:1033A0003846453531384441304433454545464437
:1033B0004430453735443344324638463535323566
:1033C0004535464636344331373746463139323251
:1033D0003443443243383537353539394541323253
:1033E0004632450030364245413336413030433174
:1033F0004431333646353632444143363744324120
:103400004335333845313042323845420030364258
:103410004541333641303043314431333646353619
:1034200032444143363744324143353338453130F5
:10343000423238454232424545434645434237369B
:1034400030464143383535453941314544313742BD
:1034500035443537353338333536393837363442F5
:1034600036303343413541324432423934463943B0
:1034700030363831334143463942464135324532A0
:1034800043353831434346373332453432004533D0
:103490003842323445373642373035354439443690
:1034A0003031424330443133424143463241423667
:1034B00037363131364600364542374544343633A7
:1034C0003634333041414233353337464332454257
:1034D0004639354646443737394531304330300078
:1034E0003645423745443436333634333041414231
:1034F00033353337464332454246393546464437FD
:103500003739453130433030313131313331323870
:10351000373431333535303245393239313542354A
:103520003031443346303432383338434544333114
:1035300046414637364146363632433144364642B6
:1035400032314142323930314446424641374241BC
:1035500032433431393843313441343441353032F7
:1035600000444134443938463243313437393431F8
:103570003532363542424344373745374445303398
:1035800041343241303134374336323636314434C7
:1035900046413430423435344530324432393131A9
:1035A0004242363143423738313437394241393477
:1035B000304437443535313444394241383236416C
:1035C0004333394241414234464242344230464319
:1035D0003130353330373346324239414331413669
:1035E0003600257320746573742025643A20737542
:1035F00063636573730D0A0025732074657374200B
:1036000025643A204641494C5552450D0A007465DF
:1036100073745F70626B6466325F686D61635F696B
:1036200073686100746573745F686D61635F69736B
:10363000686100746573745F6973686100070200F4
:10364000000000000001007700286E756C6C2900F6
:103650003058003078002D0020002B0030313233FC
:1036600034353637383941424344454600303132EB
:1036700033343536373839616263646566002A2A27
:103680002A205F437379735F616C6C6F632066619E
:08369000696C65640A00FFFF8C
:08369800008000000000400169
:04000003000000D524
:00000001FF
